{
  "contractName": "AdminContract",
  "abi": [
    {
      "anonymous": false,
      "inputs": [
        {
          "indexed": false,
          "internalType": "string",
          "name": "description",
          "type": "string"
        }
      ],
      "name": "LogNewProvableQuery",
      "type": "event"
    },
    {
      "anonymous": false,
      "inputs": [
        {
          "indexed": false,
          "internalType": "bytes32",
          "name": "id",
          "type": "bytes32"
        },
        {
          "indexed": false,
          "internalType": "string",
          "name": "data",
          "type": "string"
        }
      ],
      "name": "LogReceivedData",
      "type": "event"
    },
    {
      "anonymous": false,
      "inputs": [
        {
          "indexed": false,
          "internalType": "contract LockerFactory",
          "name": "lockerFactory",
          "type": "address"
        },
        {
          "indexed": false,
          "internalType": "address",
          "name": "owner",
          "type": "address"
        }
      ],
      "name": "NewLockerFactory",
      "type": "event"
    },
    {
      "inputs": [
        {
          "internalType": "address",
          "name": "",
          "type": "address"
        }
      ],
      "name": "lockerFactoryToVerifiedCount",
      "outputs": [
        {
          "internalType": "uint256",
          "name": "",
          "type": "uint256"
        }
      ],
      "stateMutability": "view",
      "type": "function",
      "constant": true
    },
    {
      "inputs": [
        {
          "internalType": "string",
          "name": "",
          "type": "string"
        }
      ],
      "name": "nationalIdToLockerFactoryAddress",
      "outputs": [
        {
          "internalType": "address",
          "name": "",
          "type": "address"
        }
      ],
      "stateMutability": "view",
      "type": "function",
      "constant": true
    },
    {
      "stateMutability": "payable",
      "type": "receive",
      "payable": true
    },
    {
      "inputs": [
        {
          "internalType": "address",
          "name": "_address",
          "type": "address"
        },
        {
          "internalType": "string",
          "name": "_nationalId",
          "type": "string"
        }
      ],
      "name": "addToMapping",
      "outputs": [],
      "stateMutability": "nonpayable",
      "type": "function"
    },
    {
      "inputs": [
        {
          "internalType": "string",
          "name": "_nationalId",
          "type": "string"
        }
      ],
      "name": "attestDeath",
      "outputs": [],
      "stateMutability": "nonpayable",
      "type": "function"
    },
    {
      "inputs": [
        {
          "internalType": "bytes32",
          "name": "myid",
          "type": "bytes32"
        },
        {
          "internalType": "string",
          "name": "result",
          "type": "string"
        }
      ],
      "name": "__callback",
      "outputs": [],
      "stateMutability": "nonpayable",
      "type": "function"
    },
    {
      "inputs": [
        {
          "internalType": "string",
          "name": "_nationalId",
          "type": "string"
        }
      ],
      "name": "setUserDeath",
      "outputs": [],
      "stateMutability": "payable",
      "type": "function",
      "payable": true
    }
  ],
  "bytecode": "0x608060405234801561001057600080fd5b506123c9806100206000396000f3fe6080604052600436106100595760003560e01c806320e8c0571461006557806327dc297e1461008e57806330a7158f146100b757806370056bb0146100d35780637222d05d14610110578063b6b2fdd91461014d57610060565b3661006057005b600080fd5b34801561007157600080fd5b5061008c600480360381019061008791906118a4565b610176565b005b34801561009a57600080fd5b506100b560048036038101906100b09190611923565b6102a9565b005b6100d160048036038101906100cc91906118a4565b610325565b005b3480156100df57600080fd5b506100fa60048036038101906100f591906118a4565b610464565b60405161010791906119c0565b60405180910390f35b34801561011c57600080fd5b5061013760048036038101906101329190611a07565b6104ad565b6040516101449190611a4d565b60405180910390f35b34801561015957600080fd5b50610174600480360381019061016f9190611a68565b6104c5565b005b60006005826040516101889190611b35565b908152602001604051809103902060009054906101000a900473ffffffffffffffffffffffffffffffffffffffff1690506000600660008373ffffffffffffffffffffffffffffffffffffffff1673ffffffffffffffffffffffffffffffffffffffff168152602001908152602001600020549050600060018261020c9190611b7b565b905080600660008573ffffffffffffffffffffffffffffffffffffffff1673ffffffffffffffffffffffffffffffffffffffff168152602001908152602001600020819055506002600660008573ffffffffffffffffffffffffffffffffffffffff1673ffffffffffffffffffffffffffffffffffffffff16815260200190815260200160002054106102a3576102a284610325565b5b50505050565b6102b16105d3565b73ffffffffffffffffffffffffffffffffffffffff163373ffffffffffffffffffffffffffffffffffffffff16146102e857600080fd5b7f144385391b548c2d638e864261d1788a2e3f52bc799b7e229b1d0b60920bc3048282604051610319929190611c08565b60405180910390a15050565b476103646040518060400160405280600381526020017f55524c00000000000000000000000000000000000000000000000000000000008152506108ba565b11156103a4577fc4dc360d0a9c0677a3379ae0a3d81e887f761e65fdf3d7e00859d1bcd3c4738960405161039790611cd0565b60405180910390a1610461565b7fc4dc360d0a9c0677a3379ae0a3d81e887f761e65fdf3d7e00859d1bcd3c473896040516103d190611d62565b60405180910390a16000816040516020016103ec9190611e1a565b60405160208183030381529060405290508060405160200161040e9190611e62565b604051602081830303815290604052905061045e6040518060400160405280600381526020017f55524c000000000000000000000000000000000000000000000000000000000081525082610bae565b50505b50565b6005818051602081018201805184825260208301602085012081835280955050505050506000915054906101000a900473ffffffffffffffffffffffffffffffffffffffff1681565b60066020528060005260406000206000915090505481565b600073ffffffffffffffffffffffffffffffffffffffff166005826040516104ed9190611b35565b908152602001604051809103902060009054906101000a900473ffffffffffffffffffffffffffffffffffffffff1673ffffffffffffffffffffffffffffffffffffffff1614610572576040517f08c379a000000000000000000000000000000000000000000000000000000000815260040161056990611ed4565b60405180910390fd5b816005826040516105839190611b35565b908152602001604051809103902060006101000a81548173ffffffffffffffffffffffffffffffffffffffff021916908373ffffffffffffffffffffffffffffffffffffffff1602179055505050565b60008073ffffffffffffffffffffffffffffffffffffffff16600160009054906101000a900473ffffffffffffffffffffffffffffffffffffffff1673ffffffffffffffffffffffffffffffffffffffff16148061065b57506000610659600160009054906101000a900473ffffffffffffffffffffffffffffffffffffffff16610f81565b145b1561066c5761066a6000610f8c565b505b600160009054906101000a900473ffffffffffffffffffffffffffffffffffffffff1673ffffffffffffffffffffffffffffffffffffffff166338cc48316040518163ffffffff1660e01b81526004016020604051808303816000875af11580156106db573d6000803e3d6000fd5b505050506040513d601f19601f820116820180604052508101906106ff9190611f09565b73ffffffffffffffffffffffffffffffffffffffff1660008054906101000a900473ffffffffffffffffffffffffffffffffffffffff1673ffffffffffffffffffffffffffffffffffffffff161461082457600160009054906101000a900473ffffffffffffffffffffffffffffffffffffffff1673ffffffffffffffffffffffffffffffffffffffff166338cc48316040518163ffffffff1660e01b81526004016020604051808303816000875af11580156107c0573d6000803e3d6000fd5b505050506040513d601f19601f820116820180604052508101906107e49190611f09565b6000806101000a81548173ffffffffffffffffffffffffffffffffffffffff021916908373ffffffffffffffffffffffffffffffffffffffff1602179055505b60008054906101000a900473ffffffffffffffffffffffffffffffffffffffff1673ffffffffffffffffffffffffffffffffffffffff1663c281d19e6040518163ffffffff1660e01b81526004016020604051808303816000875af1158015610891573d6000803e3d6000fd5b505050506040513d601f19601f820116820180604052508101906108b59190611f09565b905090565b60008073ffffffffffffffffffffffffffffffffffffffff16600160009054906101000a900473ffffffffffffffffffffffffffffffffffffffff1673ffffffffffffffffffffffffffffffffffffffff16148061094257506000610940600160009054906101000a900473ffffffffffffffffffffffffffffffffffffffff16610f81565b145b15610953576109516000610f8c565b505b600160009054906101000a900473ffffffffffffffffffffffffffffffffffffffff1673ffffffffffffffffffffffffffffffffffffffff166338cc48316040518163ffffffff1660e01b81526004016020604051808303816000875af11580156109c2573d6000803e3d6000fd5b505050506040513d601f19601f820116820180604052508101906109e69190611f09565b73ffffffffffffffffffffffffffffffffffffffff1660008054906101000a900473ffffffffffffffffffffffffffffffffffffffff1673ffffffffffffffffffffffffffffffffffffffff1614610b0b57600160009054906101000a900473ffffffffffffffffffffffffffffffffffffffff1673ffffffffffffffffffffffffffffffffffffffff166338cc48316040518163ffffffff1660e01b81526004016020604051808303816000875af1158015610aa7573d6000803e3d6000fd5b505050506040513d601f19601f82011682018060405250810190610acb9190611f09565b6000806101000a81548173ffffffffffffffffffffffffffffffffffffffff021916908373ffffffffffffffffffffffffffffffffffffffff1602179055505b60008054906101000a900473ffffffffffffffffffffffffffffffffffffffff1673ffffffffffffffffffffffffffffffffffffffff1663524f3889836040518263ffffffff1660e01b8152600401610b649190611f36565b6020604051808303816000875af1158015610b83573d6000803e3d6000fd5b505050506040513d601f19601f82011682018060405250810190610ba79190611f84565b9050919050565b60008073ffffffffffffffffffffffffffffffffffffffff16600160009054906101000a900473ffffffffffffffffffffffffffffffffffffffff1673ffffffffffffffffffffffffffffffffffffffff161480610c3657506000610c34600160009054906101000a900473ffffffffffffffffffffffffffffffffffffffff16610f81565b145b15610c4757610c456000610f8c565b505b600160009054906101000a900473ffffffffffffffffffffffffffffffffffffffff1673ffffffffffffffffffffffffffffffffffffffff166338cc48316040518163ffffffff1660e01b81526004016020604051808303816000875af1158015610cb6573d6000803e3d6000fd5b505050506040513d601f19601f82011682018060405250810190610cda9190611f09565b73ffffffffffffffffffffffffffffffffffffffff1660008054906101000a900473ffffffffffffffffffffffffffffffffffffffff1673ffffffffffffffffffffffffffffffffffffffff1614610dff57600160009054906101000a900473ffffffffffffffffffffffffffffffffffffffff1673ffffffffffffffffffffffffffffffffffffffff166338cc48316040518163ffffffff1660e01b81526004016020604051808303816000875af1158015610d9b573d6000803e3d6000fd5b505050506040513d601f19601f82011682018060405250810190610dbf9190611f09565b6000806101000a81548173ffffffffffffffffffffffffffffffffffffffff021916908373ffffffffffffffffffffffffffffffffffffffff1602179055505b60008060009054906101000a900473ffffffffffffffffffffffffffffffffffffffff1673ffffffffffffffffffffffffffffffffffffffff1663524f3889856040518263ffffffff1660e01b8152600401610e5b9190611f36565b6020604051808303816000875af1158015610e7a573d6000803e3d6000fd5b505050506040513d601f19601f82011682018060405250810190610e9e9190611f84565b905062030d403a610eaf9190611fb1565b670de0b6b3a7640000610ec29190611b7b565b811115610ed5576000801b915050610f7b565b60008054906101000a900473ffffffffffffffffffffffffffffffffffffffff1673ffffffffffffffffffffffffffffffffffffffff1663adf59f9982600087876040518563ffffffff1660e01b8152600401610f3493929190612038565b60206040518083038185885af1158015610f52573d6000803e3d6000fd5b50505050506040513d601f19601f82011682018060405250810190610f779190612092565b9150505b92915050565b6000813b9050919050565b6000610f96610f9d565b9050919050565b600080610fbd731d3b2638a7cc9f2cb3d298a3da7a90b67e5506ed610f81565b111561105f57731d3b2638a7cc9f2cb3d298a3da7a90b67e5506ed600160006101000a81548173ffffffffffffffffffffffffffffffffffffffff021916908373ffffffffffffffffffffffffffffffffffffffff1602179055506110566040518060400160405280600b81526020017f6574685f6d61696e6e6574000000000000000000000000000000000000000000815250611737565b60019050611734565b600061107e73c03a2615d5efaf5f49f60b7bb6583eaec212fdf1610f81565b11156111205773c03a2615d5efaf5f49f60b7bb6583eaec212fdf1600160006101000a81548173ffffffffffffffffffffffffffffffffffffffff021916908373ffffffffffffffffffffffffffffffffffffffff1602179055506111176040518060400160405280600c81526020017f6574685f726f707374656e330000000000000000000000000000000000000000815250611737565b60019050611734565b600061113f73b7a07bcf2ba2f2703b24c0691b5278999c59ac7e610f81565b11156111e15773b7a07bcf2ba2f2703b24c0691b5278999c59ac7e600160006101000a81548173ffffffffffffffffffffffffffffffffffffffff021916908373ffffffffffffffffffffffffffffffffffffffff1602179055506111d86040518060400160405280600981526020017f6574685f6b6f76616e0000000000000000000000000000000000000000000000815250611737565b60019050611734565b600061120073146500cfd35b22e4a392fe0adc06de1a1368ed48610f81565b11156112a25773146500cfd35b22e4a392fe0adc06de1a1368ed48600160006101000a81548173ffffffffffffffffffffffffffffffffffffffff021916908373ffffffffffffffffffffffffffffffffffffffff1602179055506112996040518060400160405280600b81526020017f6574685f72696e6b656279000000000000000000000000000000000000000000815250611737565b60019050611734565b60006112c173a2998efd205fb9d4b4963afb70778d6354ad3a41610f81565b11156113635773a2998efd205fb9d4b4963afb70778d6354ad3a41600160006101000a81548173ffffffffffffffffffffffffffffffffffffffff021916908373ffffffffffffffffffffffffffffffffffffffff16021790555061135a6040518060400160405280600a81526020017f6574685f676f65726c6900000000000000000000000000000000000000000000815250611737565b60019050611734565b60006113827390a0f94702c9630036fb9846b52bf31a1c991a84610f81565b1115611424577390a0f94702c9630036fb9846b52bf31a1c991a84600160006101000a81548173ffffffffffffffffffffffffffffffffffffffff021916908373ffffffffffffffffffffffffffffffffffffffff16021790555061141b6040518060400160405280600b81526020017f6273635f6d61696e6e6574000000000000000000000000000000000000000000815250611737565b60019050611734565b600061144373816ec2af1b56183f82f8c05759e99fec3c3de609610f81565b11156114e55773816ec2af1b56183f82f8c05759e99fec3c3de609600160006101000a81548173ffffffffffffffffffffffffffffffffffffffff021916908373ffffffffffffffffffffffffffffffffffffffff1602179055506114dc6040518060400160405280600f81526020017f706f6c79676f6e5f6d61696e6e65740000000000000000000000000000000000815250611737565b60019050611734565b60006115047314b31a1c66a9f3d18dfac2d123fe8ce5847b7f85610f81565b11156115a6577314b31a1c66a9f3d18dfac2d123fe8ce5847b7f85600160006101000a81548173ffffffffffffffffffffffffffffffffffffffff021916908373ffffffffffffffffffffffffffffffffffffffff16021790555061159d6040518060400160405280600f81526020017f7365706f6c69615f6d61696e6e65740000000000000000000000000000000000815250611737565b60019050611734565b60006115c5736f485c8bf6fc43ea212e93bbf8ce046c7f1cb475610f81565b111561162957736f485c8bf6fc43ea212e93bbf8ce046c7f1cb475600160006101000a81548173ffffffffffffffffffffffffffffffffffffffff021916908373ffffffffffffffffffffffffffffffffffffffff16021790555060019050611734565b60006116487320e12a1f859b3feae5fb2a0a32c18f5a65555bbf610f81565b11156116ac577320e12a1f859b3feae5fb2a0a32c18f5a65555bbf600160006101000a81548173ffffffffffffffffffffffffffffffffffffffff021916908373ffffffffffffffffffffffffffffffffffffffff16021790555060019050611734565b60006116cb7351efaf4c8b3c9afbd5ab9f4bbc82784ab6ef8faa610f81565b111561172f577351efaf4c8b3c9afbd5ab9f4bbc82784ab6ef8faa600160006101000a81548173ffffffffffffffffffffffffffffffffffffffff021916908373ffffffffffffffffffffffffffffffffffffffff16021790555060019050611734565b600090505b90565b806002908161174691906122c1565b5050565b6000604051905090565b600080fd5b600080fd5b600080fd5b600080fd5b6000601f19601f8301169050919050565b7f4e487b7100000000000000000000000000000000000000000000000000000000600052604160045260246000fd5b6117b182611768565b810181811067ffffffffffffffff821117156117d0576117cf611779565b5b80604052505050565b60006117e361174a565b90506117ef82826117a8565b919050565b600067ffffffffffffffff82111561180f5761180e611779565b5b61181882611768565b9050602081019050919050565b82818337600083830152505050565b6000611847611842846117f4565b6117d9565b90508281526020810184848401111561186357611862611763565b5b61186e848285611825565b509392505050565b600082601f83011261188b5761188a61175e565b5b813561189b848260208601611834565b91505092915050565b6000602082840312156118ba576118b9611754565b5b600082013567ffffffffffffffff8111156118d8576118d7611759565b5b6118e484828501611876565b91505092915050565b6000819050919050565b611900816118ed565b811461190b57600080fd5b50565b60008135905061191d816118f7565b92915050565b6000806040838503121561193a57611939611754565b5b60006119488582860161190e565b925050602083013567ffffffffffffffff81111561196957611968611759565b5b61197585828601611876565b9150509250929050565b600073ffffffffffffffffffffffffffffffffffffffff82169050919050565b60006119aa8261197f565b9050919050565b6119ba8161199f565b82525050565b60006020820190506119d560008301846119b1565b92915050565b6119e48161199f565b81146119ef57600080fd5b50565b600081359050611a01816119db565b92915050565b600060208284031215611a1d57611a1c611754565b5b6000611a2b848285016119f2565b91505092915050565b6000819050919050565b611a4781611a34565b82525050565b6000602082019050611a626000830184611a3e565b92915050565b60008060408385031215611a7f57611a7e611754565b5b6000611a8d858286016119f2565b925050602083013567ffffffffffffffff811115611aae57611aad611759565b5b611aba85828601611876565b9150509250929050565b600081519050919050565b600081905092915050565b60005b83811015611af8578082015181840152602081019050611add565b60008484015250505050565b6000611b0f82611ac4565b611b198185611acf565b9350611b29818560208601611ada565b80840191505092915050565b6000611b418284611b04565b915081905092915050565b7f4e487b7100000000000000000000000000000000000000000000000000000000600052601160045260246000fd5b6000611b8682611a34565b9150611b9183611a34565b9250828201905080821115611ba957611ba8611b4c565b5b92915050565b611bb8816118ed565b82525050565b600082825260208201905092915050565b6000611bda82611ac4565b611be48185611bbe565b9350611bf4818560208601611ada565b611bfd81611768565b840191505092915050565b6000604082019050611c1d6000830185611baf565b8181036020830152611c2f8184611bcf565b90509392505050565b7f50726f7661626c6520717565727920776173204e4f542073656e742c20706c6560008201527f6173652061646420736f6d652045544820746f20636f76657220666f7220746860208201527f6520717565727920666565000000000000000000000000000000000000000000604082015250565b6000611cba604b83611bbe565b9150611cc582611c38565b606082019050919050565b60006020820190508181036000830152611ce981611cad565b9050919050565b7f50726f7661626c65207175657279207761732073656e742c207374616e64696e60008201527f6720627920666f722074686520616e737765722e2e0000000000000000000000602082015250565b6000611d4c603583611bbe565b9150611d5782611cf0565b604082019050919050565b60006020820190508181036000830152611d7b81611d3f565b9050919050565b7f6a736f6e2868747470733a2f2f63727970746f2d696e68657269746f722d626160008201527f636b656e642e6865726f6b756170702e636f6d2f6170692f75736572732f747260208201527f69676765722f0000000000000000000000000000000000000000000000000000604082015250565b6000611e04604683611acf565b9150611e0f82611d82565b604682019050919050565b6000611e2582611df7565b9150611e318284611b04565b915081905092915050565b7f292e6973416c6976650000000000000000000000000000000000000000000000815250565b6000611e6e8284611b04565b9150611e7982611e3c565b60098201915081905092915050565b7f416e206163636f756e7420666f72207468697320494420657869737473000000600082015250565b6000611ebe601d83611bbe565b9150611ec982611e88565b602082019050919050565b60006020820190508181036000830152611eed81611eb1565b9050919050565b600081519050611f03816119db565b92915050565b600060208284031215611f1f57611f1e611754565b5b6000611f2d84828501611ef4565b91505092915050565b60006020820190508181036000830152611f508184611bcf565b905092915050565b611f6181611a34565b8114611f6c57600080fd5b50565b600081519050611f7e81611f58565b92915050565b600060208284031215611f9a57611f99611754565b5b6000611fa884828501611f6f565b91505092915050565b6000611fbc82611a34565b9150611fc783611a34565b9250828202611fd581611a34565b91508282048414831517611fec57611feb611b4c565b5b5092915050565b6000819050919050565b6000819050919050565b600061202261201d61201884611ff3565b611ffd565b611a34565b9050919050565b61203281612007565b82525050565b600060608201905061204d6000830186612029565b818103602083015261205f8185611bcf565b905081810360408301526120738184611bcf565b9050949350505050565b60008151905061208c816118f7565b92915050565b6000602082840312156120a8576120a7611754565b5b60006120b68482850161207d565b91505092915050565b7f4e487b7100000000000000000000000000000000000000000000000000000000600052602260045260246000fd5b6000600282049050600182168061210657607f821691505b602082108103612119576121186120bf565b5b50919050565b60008190508160005260206000209050919050565b60006020601f8301049050919050565b600082821b905092915050565b6000600883026121817fffffffffffffffffffffffffffffffffffffffffffffffffffffffffffffffff82612144565b61218b8683612144565b95508019841693508086168417925050509392505050565b60006121be6121b96121b484611a34565b611ffd565b611a34565b9050919050565b6000819050919050565b6121d8836121a3565b6121ec6121e4826121c5565b848454612151565b825550505050565b600090565b6122016121f4565b61220c8184846121cf565b505050565b5b81811015612230576122256000826121f9565b600181019050612212565b5050565b601f821115612275576122468161211f565b61224f84612134565b8101602085101561225e578190505b61227261226a85612134565b830182612211565b50505b505050565b600082821c905092915050565b60006122986000198460080261227a565b1980831691505092915050565b60006122b18383612287565b9150826002028217905092915050565b6122ca82611ac4565b67ffffffffffffffff8111156122e3576122e2611779565b5b6122ed82546120ee565b6122f8828285612234565b600060209050601f83116001811461232b5760008415612319578287015190505b61232385826122a5565b86555061238b565b601f1984166123398661211f565b60005b828110156123615784890151825560018201915060208501945060208101905061233c565b8683101561237e578489015161237a601f891682612287565b8355505b6001600288020188555050505b50505050505056fea264697066735822122090235f76cee8b4fef77395bd151a7108a85450575d5c43a71b5be884fb76de3064736f6c63430008110033",
  "immutableReferences": {},
  "source": "// SPDX-License-Identifier: UNLICENSED\r\npragma solidity ^0.8.17;\r\nimport \"./LockerFactory.sol\";\r\nimport \"./provable/provableAPI.sol\";\r\n\r\ncontract AdminContract is usingProvable {\r\n    mapping(string => address) public nationalIdToLockerFactoryAddress;\r\n    mapping(address => uint256) public lockerFactoryToVerifiedCount;\r\n\r\n    event NewLockerFactory(LockerFactory lockerFactory, address owner);\r\n    event LogReceivedData(bytes32 id, string data);\r\n    event LogNewProvableQuery(string description);\r\n\r\n    function addToMapping(\r\n        address _address,\r\n        string memory _nationalId\r\n    ) external {\r\n        require(\r\n            nationalIdToLockerFactoryAddress[_nationalId] == address(0x0),\r\n            \"An account for this ID exists\"\r\n        );\r\n        nationalIdToLockerFactoryAddress[_nationalId] = _address;\r\n    }\r\n\r\n    function attestDeath(string memory _nationalId) public {\r\n        address lockerFactoryAddress = nationalIdToLockerFactoryAddress[\r\n            _nationalId\r\n        ];\r\n        uint256 currentCount = lockerFactoryToVerifiedCount[\r\n            lockerFactoryAddress\r\n        ];\r\n        uint256 newCount = currentCount + 1;\r\n        lockerFactoryToVerifiedCount[lockerFactoryAddress] = newCount;\r\n\r\n        if (lockerFactoryToVerifiedCount[lockerFactoryAddress] >= 2) {\r\n            setUserDeath(_nationalId);\r\n        }\r\n    }\r\n\r\n    // ------------------------ Provable Oracle Functions ------------------------\r\n    function __callback(bytes32 myid, string memory result) public {\r\n        if (msg.sender != provable_cbAddress()) revert();\r\n        emit LogReceivedData(myid, result);\r\n    }\r\n\r\n    function setUserDeath(string memory _nationalId) public payable {\r\n        if (provable_getPrice(\"URL\") > address(this).balance) {\r\n            emit LogNewProvableQuery(\r\n                \"Provable query was NOT sent, please add some ETH to cover for the query fee\"\r\n            );\r\n        } else {\r\n            emit LogNewProvableQuery(\r\n                \"Provable query was sent, standing by for the answer..\"\r\n            );\r\n            string memory path = string.concat(\r\n                \"json(https://crypto-inheritor-backend.herokuapp.com/api/users/trigger/\",\r\n                _nationalId\r\n            );\r\n            path = string.concat(path, \").isAlive\");\r\n            provable_query(\"URL\", path);\r\n        }\r\n    }\r\n\r\n    receive() external payable {}\r\n}\r\n",
  "sourcePath": "C:\\Users\\Rasula\\Documents\\GitHub\\crypto-inheritor-react-frontend\\contracts\\AdminContract.sol",
  "compiler": {
    "name": "solc",
    "version": "0.8.17+commit.8df45f5f.Emscripten.clang"
  },
  "schemaVersion": "3.4.11",
  "updatedAt": "2023-05-07T04:30:59.656Z",
  "networkType": "ethereum",
  "devdoc": {
    "kind": "dev",
    "methods": {},
    "version": 1
  },
  "userdoc": {
    "kind": "user",
    "methods": {},
    "version": 1
  }
}