{
  "contractName": "CryptoInheritor",
  "abi": [
    {
      "anonymous": false,
      "inputs": [
        {
          "indexed": false,
          "internalType": "contract LockerFactory",
          "name": "lockerFactory",
          "type": "address"
        },
        {
          "indexed": false,
          "internalType": "address",
          "name": "owner",
          "type": "address"
        }
      ],
      "name": "NewLockerFactory",
      "type": "event"
    },
    {
      "inputs": [],
      "name": "lockerFactoryCount",
      "outputs": [
        {
          "internalType": "uint256",
          "name": "",
          "type": "uint256"
        }
      ],
      "stateMutability": "view",
      "type": "function",
      "constant": true
    },
    {
      "inputs": [],
      "name": "newLockerFactory",
      "outputs": [],
      "stateMutability": "payable",
      "type": "function",
      "payable": true
    },
    {
      "inputs": [],
      "name": "getFactoryContractAddress",
      "outputs": [
        {
          "internalType": "contract LockerFactory",
          "name": "",
          "type": "address"
        }
      ],
      "stateMutability": "view",
      "type": "function",
      "constant": true
    }
  ],
  "bytecode": "0x608060405234801561001057600080fd5b50613ed5806100206000396000f3fe6080604052600436106100345760003560e01c8063628470e91461003957806363b8476b14610043578063e8d26b371461006e575b600080fd5b610041610099565b005b34801561004f57600080fd5b50610058610265565b604051610065919061035e565b60405180910390f35b34801561007a57600080fd5b506100836102cc565b6040516100909190610392565b60405180910390f35b600073ffffffffffffffffffffffffffffffffffffffff16600160003373ffffffffffffffffffffffffffffffffffffffff1673ffffffffffffffffffffffffffffffffffffffff16815260200190815260200160002060009054906101000a900473ffffffffffffffffffffffffffffffffffffffff1673ffffffffffffffffffffffffffffffffffffffff1614610167576040517f08c379a000000000000000000000000000000000000000000000000000000000815260040161015e90610430565b60405180910390fd5b6000604051610175906102d2565b604051809103906000f080158015610191573d6000803e3d6000fd5b5090506000808154809291906101a69061047f565b919050555080600160003373ffffffffffffffffffffffffffffffffffffffff1673ffffffffffffffffffffffffffffffffffffffff16815260200190815260200160002060006101000a81548173ffffffffffffffffffffffffffffffffffffffff021916908373ffffffffffffffffffffffffffffffffffffffff1602179055507fdc0d17a0f7854a550a92024864fc933300a2cc98fb4a655dce0c70df4e730a9d813360405161025a9291906104e8565b60405180910390a150565b6000600160003373ffffffffffffffffffffffffffffffffffffffff1673ffffffffffffffffffffffffffffffffffffffff16815260200190815260200160002060009054906101000a900473ffffffffffffffffffffffffffffffffffffffff16905090565b60005481565b61398e8061051283390190565b600073ffffffffffffffffffffffffffffffffffffffff82169050919050565b6000819050919050565b600061032461031f61031a846102df565b6102ff565b6102df565b9050919050565b600061033682610309565b9050919050565b60006103488261032b565b9050919050565b6103588161033d565b82525050565b6000602082019050610373600083018461034f565b92915050565b6000819050919050565b61038c81610379565b82525050565b60006020820190506103a76000830184610383565b92915050565b600082825260208201905092915050565b7f596f75206861766520616c726561647920637265617465642061204c6f636b6560008201527f72466163746f727920636f6e7472616374000000000000000000000000000000602082015250565b600061041a6031836103ad565b9150610425826103be565b604082019050919050565b600060208201905081810360008301526104498161040d565b9050919050565b7f4e487b7100000000000000000000000000000000000000000000000000000000600052601160045260246000fd5b600061048a82610379565b91507fffffffffffffffffffffffffffffffffffffffffffffffffffffffffffffffff82036104bc576104bb610450565b5b600182019050919050565b60006104d2826102df565b9050919050565b6104e2816104c7565b82525050565b60006040820190506104fd600083018561034f565b61050a60208301846104d9565b939250505056fe60806040526001600760006101000a81548160ff02191690831515021790555034801561002b57600080fd5b5033600760016101000a81548173ffffffffffffffffffffffffffffffffffffffff021916908373ffffffffffffffffffffffffffffffffffffffff160217905550736f485c8bf6fc43ea212e93bbf8ce046c7f1cb475600160006101000a81548173ffffffffffffffffffffffffffffffffffffffff021916908373ffffffffffffffffffffffffffffffffffffffff1602179055506138bd806100d16000396000f3fe608060405260043610620000975760003560e01c8063809aab921162000061578063809aab921462000176578063832880e714620001ba578063a36d305b14620001c6578063ce606ee014620001f4578063ef69a7bc1462000224576200009f565b806327dc297e14620000a45780634136aa3514620000d25780634b88268d146200010257806361bc221a1462000146576200009f565b366200009f57005b600080fd5b348015620000b157600080fd5b50620000d06004803603810190620000ca919062001adf565b62000254565b005b348015620000df57600080fd5b50620000ea620003aa565b604051620000f9919062001b62565b60405180910390f35b3480156200010f57600080fd5b506200012e600480360381019062000128919062001bba565b620003bd565b6040516200013d919062001c77565b60405180910390f35b3480156200015357600080fd5b506200015e620003fa565b6040516200016d919062001ca5565b60405180910390f35b3480156200018357600080fd5b50620001a260048036038101906200019c919062001bba565b62000400565b604051620001b1919062001c77565b60405180910390f35b620001c462000433565b005b348015620001d357600080fd5b50620001f26004803603810190620001ec919062001d07565b6200054f565b005b3480156200020157600080fd5b506200020c6200063e565b6040516200021b919062001d7e565b60405180910390f35b3480156200023157600080fd5b506200023c62000664565b6040516200024b919062001ca5565b60405180910390f35b6200025e6200066e565b73ffffffffffffffffffffffffffffffffffffffff163373ffffffffffffffffffffffffffffffffffffffff16146200029657600080fd5b7f6273151f959616268004b58dbb21e5c851b7b8d04498b4aabee12291d22fc03481604051602001620002ca919062001e14565b60405160208183030381529060405280519060200120036200032b576001600760006101000a81548160ff02191690831515021790555060056000815480929190620003169062001e5c565b91905055506200032562000433565b6200036b565b6000600760006101000a81548160ff021916908315150217905550600560008154809291906200035b9062001e5c565b91905055506200036a62000965565b5b7f144385391b548c2d638e864261d1788a2e3f52bc799b7e229b1d0b60920bc30482826040516200039e92919062001f0c565b60405180910390a15050565b600760009054906101000a900460ff1681565b60006008600083815260200190815260200160002060009054906101000a900473ffffffffffffffffffffffffffffffffffffffff169050919050565b60055481565b60086020528060005260406000206000915054906101000a900473ffffffffffffffffffffffffffffffffffffffff1681565b47620004746040518060400160405280600381526020017f55524c000000000000000000000000000000000000000000000000000000000081525062000a21565b1115620004b8577fc4dc360d0a9c0677a3379ae0a3d81e887f761e65fdf3d7e00859d1bcd3c47389604051620004aa9062001fdc565b60405180910390a16200054d565b7fc4dc360d0a9c0677a3379ae0a3d81e887f761e65fdf3d7e00859d1bcd3c47389604051620004e79062002074565b60405180910390a16200054b603c6040518060400160405280600381526020017f55524c0000000000000000000000000000000000000000000000000000000000815250604051806080016040528060608152602001620038286060913962000d27565b505b565b6000823383604051620005629062001920565b620005709392919062002096565b604051809103906000f0801580156200058d573d6000803e3d6000fd5b5090508060086000600654815260200190815260200160002060006101000a81548173ffffffffffffffffffffffffffffffffffffffff021916908373ffffffffffffffffffffffffffffffffffffffff16021790555060066000815480929190620005f99062001e5c565b91905055507f69253c7023f628e3a302b63087a3bfc1dfdb256780182f81b9f0df9eff9542b0813360405162000631929190620020da565b60405180910390a1505050565b600760019054906101000a900473ffffffffffffffffffffffffffffffffffffffff1681565b6000600654905090565b60008073ffffffffffffffffffffffffffffffffffffffff16600160009054906101000a900473ffffffffffffffffffffffffffffffffffffffff1673ffffffffffffffffffffffffffffffffffffffff161480620006f957506000620006f7600160009054906101000a900473ffffffffffffffffffffffffffffffffffffffff1662001117565b145b156200070d576200070b600062001122565b505b600160009054906101000a900473ffffffffffffffffffffffffffffffffffffffff1673ffffffffffffffffffffffffffffffffffffffff166338cc48316040518163ffffffff1660e01b81526004016020604051808303816000875af11580156200077d573d6000803e3d6000fd5b505050506040513d601f19601f82011682018060405250810190620007a391906200211e565b73ffffffffffffffffffffffffffffffffffffffff1660008054906101000a900473ffffffffffffffffffffffffffffffffffffffff1673ffffffffffffffffffffffffffffffffffffffff1614620008cc57600160009054906101000a900473ffffffffffffffffffffffffffffffffffffffff1673ffffffffffffffffffffffffffffffffffffffff166338cc48316040518163ffffffff1660e01b81526004016020604051808303816000875af115801562000866573d6000803e3d6000fd5b505050506040513d601f19601f820116820180604052508101906200088c91906200211e565b6000806101000a81548173ffffffffffffffffffffffffffffffffffffffff021916908373ffffffffffffffffffffffffffffffffffffffff1602179055505b60008054906101000a900473ffffffffffffffffffffffffffffffffffffffff1673ffffffffffffffffffffffffffffffffffffffff1663c281d19e6040518163ffffffff1660e01b81526004016020604051808303816000875af11580156200093a573d6000803e3d6000fd5b505050506040513d601f19601f820116820180604052508101906200096091906200211e565b905090565b60005b60065481101562000a1e576008600082815260200190815260200160002060009054906101000a900473ffffffffffffffffffffffffffffffffffffffff1673ffffffffffffffffffffffffffffffffffffffff1663681024c46040518163ffffffff1660e01b8152600401600060405180830381600087803b158015620009ef57600080fd5b505af115801562000a04573d6000803e3d6000fd5b50505050808062000a159062001e5c565b91505062000968565b50565b60008073ffffffffffffffffffffffffffffffffffffffff16600160009054906101000a900473ffffffffffffffffffffffffffffffffffffffff1673ffffffffffffffffffffffffffffffffffffffff16148062000aac5750600062000aaa600160009054906101000a900473ffffffffffffffffffffffffffffffffffffffff1662001117565b145b1562000ac05762000abe600062001122565b505b600160009054906101000a900473ffffffffffffffffffffffffffffffffffffffff1673ffffffffffffffffffffffffffffffffffffffff166338cc48316040518163ffffffff1660e01b81526004016020604051808303816000875af115801562000b30573d6000803e3d6000fd5b505050506040513d601f19601f8201168201806040525081019062000b5691906200211e565b73ffffffffffffffffffffffffffffffffffffffff1660008054906101000a900473ffffffffffffffffffffffffffffffffffffffff1673ffffffffffffffffffffffffffffffffffffffff161462000c7f57600160009054906101000a900473ffffffffffffffffffffffffffffffffffffffff1673ffffffffffffffffffffffffffffffffffffffff166338cc48316040518163ffffffff1660e01b81526004016020604051808303816000875af115801562000c19573d6000803e3d6000fd5b505050506040513d601f19601f8201168201806040525081019062000c3f91906200211e565b6000806101000a81548173ffffffffffffffffffffffffffffffffffffffff021916908373ffffffffffffffffffffffffffffffffffffffff1602179055505b60008054906101000a900473ffffffffffffffffffffffffffffffffffffffff1673ffffffffffffffffffffffffffffffffffffffff1663524f3889836040518263ffffffff1660e01b815260040162000cda919062002150565b6020604051808303816000875af115801562000cfa573d6000803e3d6000fd5b505050506040513d601f19601f8201168201806040525081019062000d2091906200218b565b9050919050565b60008073ffffffffffffffffffffffffffffffffffffffff16600160009054906101000a900473ffffffffffffffffffffffffffffffffffffffff1673ffffffffffffffffffffffffffffffffffffffff16148062000db25750600062000db0600160009054906101000a900473ffffffffffffffffffffffffffffffffffffffff1662001117565b145b1562000dc65762000dc4600062001122565b505b600160009054906101000a900473ffffffffffffffffffffffffffffffffffffffff1673ffffffffffffffffffffffffffffffffffffffff166338cc48316040518163ffffffff1660e01b81526004016020604051808303816000875af115801562000e36573d6000803e3d6000fd5b505050506040513d601f19601f8201168201806040525081019062000e5c91906200211e565b73ffffffffffffffffffffffffffffffffffffffff1660008054906101000a900473ffffffffffffffffffffffffffffffffffffffff1673ffffffffffffffffffffffffffffffffffffffff161462000f8557600160009054906101000a900473ffffffffffffffffffffffffffffffffffffffff1673ffffffffffffffffffffffffffffffffffffffff166338cc48316040518163ffffffff1660e01b81526004016020604051808303816000875af115801562000f1f573d6000803e3d6000fd5b505050506040513d601f19601f8201168201806040525081019062000f4591906200211e565b6000806101000a81548173ffffffffffffffffffffffffffffffffffffffff021916908373ffffffffffffffffffffffffffffffffffffffff1602179055505b60008060009054906101000a900473ffffffffffffffffffffffffffffffffffffffff1673ffffffffffffffffffffffffffffffffffffffff1663524f3889856040518263ffffffff1660e01b815260040162000fe3919062002150565b6020604051808303816000875af115801562001003573d6000803e3d6000fd5b505050506040513d601f19601f820116820180604052508101906200102991906200218b565b905062030d403a6200103c9190620021bd565b670de0b6b3a764000062001051919062002208565b81111562001066576000801b91505062001110565b60008054906101000a900473ffffffffffffffffffffffffffffffffffffffff1673ffffffffffffffffffffffffffffffffffffffff1663adf59f99828787876040518563ffffffff1660e01b8152600401620010c69392919062002243565b60206040518083038185885af1158015620010e5573d6000803e3d6000fd5b50505050506040513d601f19601f820116820180604052508101906200110c9190620022a5565b9150505b9392505050565b6000813b9050919050565b60006200112e62001135565b9050919050565b60008062001157731d3b2638a7cc9f2cb3d298a3da7a90b67e5506ed62001117565b1115620011fd57731d3b2638a7cc9f2cb3d298a3da7a90b67e5506ed600160006101000a81548173ffffffffffffffffffffffffffffffffffffffff021916908373ffffffffffffffffffffffffffffffffffffffff160217905550620011f36040518060400160405280600b81526020017f6574685f6d61696e6e65740000000000000000000000000000000000000000008152506200190b565b6001905062001908565b60006200121e73c03a2615d5efaf5f49f60b7bb6583eaec212fdf162001117565b1115620012c45773c03a2615d5efaf5f49f60b7bb6583eaec212fdf1600160006101000a81548173ffffffffffffffffffffffffffffffffffffffff021916908373ffffffffffffffffffffffffffffffffffffffff160217905550620012ba6040518060400160405280600c81526020017f6574685f726f707374656e3300000000000000000000000000000000000000008152506200190b565b6001905062001908565b6000620012e573b7a07bcf2ba2f2703b24c0691b5278999c59ac7e62001117565b11156200138b5773b7a07bcf2ba2f2703b24c0691b5278999c59ac7e600160006101000a81548173ffffffffffffffffffffffffffffffffffffffff021916908373ffffffffffffffffffffffffffffffffffffffff160217905550620013816040518060400160405280600981526020017f6574685f6b6f76616e00000000000000000000000000000000000000000000008152506200190b565b6001905062001908565b6000620013ac73146500cfd35b22e4a392fe0adc06de1a1368ed4862001117565b1115620014525773146500cfd35b22e4a392fe0adc06de1a1368ed48600160006101000a81548173ffffffffffffffffffffffffffffffffffffffff021916908373ffffffffffffffffffffffffffffffffffffffff160217905550620014486040518060400160405280600b81526020017f6574685f72696e6b6562790000000000000000000000000000000000000000008152506200190b565b6001905062001908565b60006200147373a2998efd205fb9d4b4963afb70778d6354ad3a4162001117565b1115620015195773a2998efd205fb9d4b4963afb70778d6354ad3a41600160006101000a81548173ffffffffffffffffffffffffffffffffffffffff021916908373ffffffffffffffffffffffffffffffffffffffff1602179055506200150f6040518060400160405280600a81526020017f6574685f676f65726c69000000000000000000000000000000000000000000008152506200190b565b6001905062001908565b60006200153a7390a0f94702c9630036fb9846b52bf31a1c991a8462001117565b1115620015e0577390a0f94702c9630036fb9846b52bf31a1c991a84600160006101000a81548173ffffffffffffffffffffffffffffffffffffffff021916908373ffffffffffffffffffffffffffffffffffffffff160217905550620015d66040518060400160405280600b81526020017f6273635f6d61696e6e65740000000000000000000000000000000000000000008152506200190b565b6001905062001908565b60006200160173816ec2af1b56183f82f8c05759e99fec3c3de60962001117565b1115620016a75773816ec2af1b56183f82f8c05759e99fec3c3de609600160006101000a81548173ffffffffffffffffffffffffffffffffffffffff021916908373ffffffffffffffffffffffffffffffffffffffff1602179055506200169d6040518060400160405280600f81526020017f706f6c79676f6e5f6d61696e6e657400000000000000000000000000000000008152506200190b565b6001905062001908565b6000620016c87314b31a1c66a9f3d18dfac2d123fe8ce5847b7f8562001117565b11156200176e577314b31a1c66a9f3d18dfac2d123fe8ce5847b7f85600160006101000a81548173ffffffffffffffffffffffffffffffffffffffff021916908373ffffffffffffffffffffffffffffffffffffffff160217905550620017646040518060400160405280600f81526020017f7365706f6c69615f6d61696e6e657400000000000000000000000000000000008152506200190b565b6001905062001908565b60006200178f736f485c8bf6fc43ea212e93bbf8ce046c7f1cb47562001117565b1115620017f557736f485c8bf6fc43ea212e93bbf8ce046c7f1cb475600160006101000a81548173ffffffffffffffffffffffffffffffffffffffff021916908373ffffffffffffffffffffffffffffffffffffffff1602179055506001905062001908565b6000620018167320e12a1f859b3feae5fb2a0a32c18f5a65555bbf62001117565b11156200187c577320e12a1f859b3feae5fb2a0a32c18f5a65555bbf600160006101000a81548173ffffffffffffffffffffffffffffffffffffffff021916908373ffffffffffffffffffffffffffffffffffffffff1602179055506001905062001908565b60006200189d7351efaf4c8b3c9afbd5ab9f4bbc82784ab6ef8faa62001117565b111562001903577351efaf4c8b3c9afbd5ab9f4bbc82784ab6ef8faa600160006101000a81548173ffffffffffffffffffffffffffffffffffffffff021916908373ffffffffffffffffffffffffffffffffffffffff1602179055506001905062001908565b600090505b90565b80600290816200191c919062002503565b5050565b61123d80620025eb83390190565b6000604051905090565b600080fd5b600080fd5b6000819050919050565b620019578162001942565b81146200196357600080fd5b50565b60008135905062001977816200194c565b92915050565b600080fd5b600080fd5b6000601f19601f8301169050919050565b7f4e487b7100000000000000000000000000000000000000000000000000000000600052604160045260246000fd5b620019d28262001987565b810181811067ffffffffffffffff82111715620019f457620019f362001998565b5b80604052505050565b600062001a096200192e565b905062001a178282620019c7565b919050565b600067ffffffffffffffff82111562001a3a5762001a3962001998565b5b62001a458262001987565b9050602081019050919050565b82818337600083830152505050565b600062001a7862001a728462001a1c565b620019fd565b90508281526020810184848401111562001a975762001a9662001982565b5b62001aa484828562001a52565b509392505050565b600082601f83011262001ac45762001ac36200197d565b5b813562001ad684826020860162001a61565b91505092915050565b6000806040838503121562001af95762001af862001938565b5b600062001b098582860162001966565b925050602083013567ffffffffffffffff81111562001b2d5762001b2c6200193d565b5b62001b3b8582860162001aac565b9150509250929050565b60008115159050919050565b62001b5c8162001b45565b82525050565b600060208201905062001b79600083018462001b51565b92915050565b6000819050919050565b62001b948162001b7f565b811462001ba057600080fd5b50565b60008135905062001bb48162001b89565b92915050565b60006020828403121562001bd35762001bd262001938565b5b600062001be38482850162001ba3565b91505092915050565b600073ffffffffffffffffffffffffffffffffffffffff82169050919050565b6000819050919050565b600062001c3762001c3162001c2b8462001bec565b62001c0c565b62001bec565b9050919050565b600062001c4b8262001c16565b9050919050565b600062001c5f8262001c3e565b9050919050565b62001c718162001c52565b82525050565b600060208201905062001c8e600083018462001c66565b92915050565b62001c9f8162001b7f565b82525050565b600060208201905062001cbc600083018462001c94565b92915050565b600062001ccf8262001bec565b9050919050565b62001ce18162001cc2565b811462001ced57600080fd5b50565b60008135905062001d018162001cd6565b92915050565b6000806040838503121562001d215762001d2062001938565b5b600083013567ffffffffffffffff81111562001d425762001d416200193d565b5b62001d508582860162001aac565b925050602062001d638582860162001cf0565b9150509250929050565b62001d788162001cc2565b82525050565b600060208201905062001d95600083018462001d6d565b92915050565b600081519050919050565b600081905092915050565b60005b8381101562001dd157808201518184015260208101905062001db4565b60008484015250505050565b600062001dea8262001d9b565b62001df6818562001da6565b935062001e0881856020860162001db1565b80840191505092915050565b600062001e22828462001ddd565b915081905092915050565b7f4e487b7100000000000000000000000000000000000000000000000000000000600052601160045260246000fd5b600062001e698262001b7f565b91507fffffffffffffffffffffffffffffffffffffffffffffffffffffffffffffffff820362001e9e5762001e9d62001e2d565b5b600182019050919050565b62001eb48162001942565b82525050565b600082825260208201905092915050565b600062001ed88262001d9b565b62001ee4818562001eba565b935062001ef681856020860162001db1565b62001f018162001987565b840191505092915050565b600060408201905062001f23600083018562001ea9565b818103602083015262001f37818462001ecb565b90509392505050565b7f50726f7661626c6520717565727920776173204e4f542073656e742c20706c6560008201527f6173652061646420736f6d652045544820746f20636f76657220666f7220746860208201527f6520717565727920666565000000000000000000000000000000000000000000604082015250565b600062001fc4604b8362001eba565b915062001fd18262001f40565b606082019050919050565b6000602082019050818103600083015262001ff78162001fb5565b9050919050565b7f50726f7661626c65207175657279207761732073656e742c207374616e64696e60008201527f6720627920666f722074686520616e737765722e2e0000000000000000000000602082015250565b60006200205c60358362001eba565b9150620020698262001ffe565b604082019050919050565b600060208201905081810360008301526200208f816200204d565b9050919050565b60006060820190508181036000830152620020b2818662001ecb565b9050620020c3602083018562001d6d565b620020d2604083018462001d6d565b949350505050565b6000604082019050620020f1600083018562001c66565b62002100602083018462001d6d565b9392505050565b600081519050620021188162001cd6565b92915050565b60006020828403121562002137576200213662001938565b5b6000620021478482850162002107565b91505092915050565b600060208201905081810360008301526200216c818462001ecb565b905092915050565b600081519050620021858162001b89565b92915050565b600060208284031215620021a457620021a362001938565b5b6000620021b48482850162002174565b91505092915050565b6000620021ca8262001b7f565b9150620021d78362001b7f565b9250828202620021e78162001b7f565b9150828204841483151762002201576200220062001e2d565b5b5092915050565b6000620022158262001b7f565b9150620022228362001b7f565b92508282019050808211156200223d576200223c62001e2d565b5b92915050565b60006060820190506200225a600083018662001c94565b81810360208301526200226e818562001ecb565b9050818103604083015262002284818462001ecb565b9050949350505050565b6000815190506200229f816200194c565b92915050565b600060208284031215620022be57620022bd62001938565b5b6000620022ce848285016200228e565b91505092915050565b7f4e487b7100000000000000000000000000000000000000000000000000000000600052602260045260246000fd5b600060028204905060018216806200231f57607f821691505b602082108103620023355762002334620022d7565b5b50919050565b60008190508160005260206000209050919050565b60006020601f8301049050919050565b600082821b905092915050565b6000600883026200239f7fffffffffffffffffffffffffffffffffffffffffffffffffffffffffffffffff8262002360565b620023ab868362002360565b95508019841693508086168417925050509392505050565b6000620023e4620023de620023d88462001b7f565b62001c0c565b62001b7f565b9050919050565b6000819050919050565b6200240083620023c3565b620024186200240f82620023eb565b8484546200236d565b825550505050565b600090565b6200242f62002420565b6200243c818484620023f5565b505050565b5b8181101562002464576200245860008262002425565b60018101905062002442565b5050565b601f821115620024b3576200247d816200233b565b620024888462002350565b8101602085101562002498578190505b620024b0620024a78562002350565b83018262002441565b50505b505050565b600082821c905092915050565b6000620024d860001984600802620024b8565b1980831691505092915050565b6000620024f38383620024c5565b9150826002028217905092915050565b6200250e8262001d9b565b67ffffffffffffffff8111156200252a576200252962001998565b5b62002536825462002306565b6200254382828562002468565b600060209050601f8311600181146200257b576000841562002566578287015190505b620025728582620024e5565b865550620025e2565b601f1984166200258b866200233b565b60005b82811015620025b5578489015182556001820191506020850194506020810190506200258e565b86831015620025d55784890151620025d1601f891682620024c5565b8355505b6001600288020188555050505b50505050505056fe60806040523480156200001157600080fd5b506040516200123d3803806200123d8339818101604052810190620000379190620002cc565b826000908162000048919062000592565b5081600160006101000a81548173ffffffffffffffffffffffffffffffffffffffff021916908373ffffffffffffffffffffffffffffffffffffffff16021790555080600260006101000a81548173ffffffffffffffffffffffffffffffffffffffff021916908373ffffffffffffffffffffffffffffffffffffffff16021790555050505062000679565b6000604051905090565b600080fd5b600080fd5b600080fd5b600080fd5b6000601f19601f8301169050919050565b7f4e487b7100000000000000000000000000000000000000000000000000000000600052604160045260246000fd5b6200013d82620000f2565b810181811067ffffffffffffffff821117156200015f576200015e62000103565b5b80604052505050565b600062000174620000d4565b905062000182828262000132565b919050565b600067ffffffffffffffff821115620001a557620001a462000103565b5b620001b082620000f2565b9050602081019050919050565b60005b83811015620001dd578082015181840152602081019050620001c0565b60008484015250505050565b600062000200620001fa8462000187565b62000168565b9050828152602081018484840111156200021f576200021e620000ed565b5b6200022c848285620001bd565b509392505050565b600082601f8301126200024c576200024b620000e8565b5b81516200025e848260208601620001e9565b91505092915050565b600073ffffffffffffffffffffffffffffffffffffffff82169050919050565b6000620002948262000267565b9050919050565b620002a68162000287565b8114620002b257600080fd5b50565b600081519050620002c6816200029b565b92915050565b600080600060608486031215620002e857620002e7620000de565b5b600084015167ffffffffffffffff811115620003095762000308620000e3565b5b620003178682870162000234565b93505060206200032a86828701620002b5565b92505060406200033d86828701620002b5565b9150509250925092565b600081519050919050565b7f4e487b7100000000000000000000000000000000000000000000000000000000600052602260045260246000fd5b600060028204905060018216806200039a57607f821691505b602082108103620003b057620003af62000352565b5b50919050565b60008190508160005260206000209050919050565b60006020601f8301049050919050565b600082821b905092915050565b6000600883026200041a7fffffffffffffffffffffffffffffffffffffffffffffffffffffffffffffffff82620003db565b620004268683620003db565b95508019841693508086168417925050509392505050565b6000819050919050565b6000819050919050565b6000620004736200046d62000467846200043e565b62000448565b6200043e565b9050919050565b6000819050919050565b6200048f8362000452565b620004a76200049e826200047a565b848454620003e8565b825550505050565b600090565b620004be620004af565b620004cb81848462000484565b505050565b5b81811015620004f357620004e7600082620004b4565b600181019050620004d1565b5050565b601f82111562000542576200050c81620003b6565b6200051784620003cb565b8101602085101562000527578190505b6200053f6200053685620003cb565b830182620004d0565b50505b505050565b600082821c905092915050565b6000620005676000198460080262000547565b1980831691505092915050565b600062000582838362000554565b9150826002028217905092915050565b6200059d8262000347565b67ffffffffffffffff811115620005b957620005b862000103565b5b620005c5825462000381565b620005d2828285620004f7565b600060209050601f8311600181146200060a5760008415620005f5578287015190505b62000601858262000574565b86555062000671565b601f1984166200061a86620003b6565b60005b8281101562000644578489015182556001820191506020850194506020810190506200061d565b8683101562000664578489015162000660601f89168262000554565b8355505b6001600288020188555050505b505050505050565b610bb480620006896000396000f3fe6080604052600436106100595760003560e01c806306fdde031461012c5780632e1a7d4d1461015757806338af3eed14610180578063681024c4146101ab5780638da5cb5b146101c2578063a1db9782146101ed57610127565b3661012757600160009054906101000a900473ffffffffffffffffffffffffffffffffffffffff1673ffffffffffffffffffffffffffffffffffffffff163373ffffffffffffffffffffffffffffffffffffffff16146100ee576040517f08c379a00000000000000000000000000000000000000000000000000000000081526004016100e590610724565b60405180910390fd5b7fa8142743f8f70a4c26f3691cf4ed59718381fb2f18070ec52be1f1022d8555573460405161011d919061075d565b60405180910390a1005b600080fd5b34801561013857600080fd5b50610141610216565b60405161014e91906107f7565b60405180910390f35b34801561016357600080fd5b5061017e6004803603810190610179919061084a565b6102a4565b005b34801561018c57600080fd5b506101956103fa565b6040516101a291906108b8565b60405180910390f35b3480156101b757600080fd5b506101c0610420565b005b3480156101ce57600080fd5b506101d761048b565b6040516101e491906108b8565b60405180910390f35b3480156101f957600080fd5b50610214600480360381019061020f91906108ff565b6104b1565b005b600080546102239061096e565b80601f016020809104026020016040519081016040528092919081815260200182805461024f9061096e565b801561029c5780601f106102715761010080835404028352916020019161029c565b820191906000526020600020905b81548152906001019060200180831161027f57829003601f168201915b505050505081565b600160009054906101000a900473ffffffffffffffffffffffffffffffffffffffff1673ffffffffffffffffffffffffffffffffffffffff163373ffffffffffffffffffffffffffffffffffffffff1614610334576040517f08c379a000000000000000000000000000000000000000000000000000000000815260040161032b906109eb565b60405180910390fd5b80471015610377576040517f08c379a000000000000000000000000000000000000000000000000000000000815260040161036e90610a57565b60405180910390fd5b3373ffffffffffffffffffffffffffffffffffffffff166108fc829081150290604051600060405180830381858888f193505050501580156103bd573d6000803e3d6000fd5b507fb244b9a17ad633c6e83b7983ee04320484956a68ddbe96a0b70dfca1cf19d72333826040516103ef929190610a77565b60405180910390a150565b600260009054906101000a900473ffffffffffffffffffffffffffffffffffffffff1681565b600260009054906101000a900473ffffffffffffffffffffffffffffffffffffffff1673ffffffffffffffffffffffffffffffffffffffff166108fc479081150290604051600060405180830381858888f19350505050158015610488573d6000803e3d6000fd5b50565b600160009054906101000a900473ffffffffffffffffffffffffffffffffffffffff1681565b600160009054906101000a900473ffffffffffffffffffffffffffffffffffffffff1673ffffffffffffffffffffffffffffffffffffffff163373ffffffffffffffffffffffffffffffffffffffff1614610541576040517f08c379a0000000000000000000000000000000000000000000000000000000008152600401610538906109eb565b60405180910390fd5b600082905060008173ffffffffffffffffffffffffffffffffffffffff166370a08231306040518263ffffffff1660e01b815260040161058191906108b8565b602060405180830381865afa15801561059e573d6000803e3d6000fd5b505050506040513d601f19601f820116820180604052508101906105c29190610ab5565b905082811015610607576040517f08c379a00000000000000000000000000000000000000000000000000000000081526004016105fe90610a57565b60405180910390fd5b8173ffffffffffffffffffffffffffffffffffffffff1663a9059cbb33856040518363ffffffff1660e01b8152600401610642929190610a77565b6020604051808303816000875af1158015610661573d6000803e3d6000fd5b505050506040513d601f19601f820116820180604052508101906106859190610b1a565b507fa14466d832b5a1ff01be72c58e51196498a8e10751ab9c227fe73c4730dedc418433856040516106b993929190610b47565b60405180910390a150505050565b600082825260208201905092915050565b7f4e6f74204f776e65720000000000000000000000000000000000000000000000600082015250565b600061070e6009836106c7565b9150610719826106d8565b602082019050919050565b6000602082019050818103600083015261073d81610701565b9050919050565b6000819050919050565b61075781610744565b82525050565b6000602082019050610772600083018461074e565b92915050565b600081519050919050565b60005b838110156107a1578082015181840152602081019050610786565b60008484015250505050565b6000601f19601f8301169050919050565b60006107c982610778565b6107d381856106c7565b93506107e3818560208601610783565b6107ec816107ad565b840191505092915050565b6000602082019050818103600083015261081181846107be565b905092915050565b600080fd5b61082781610744565b811461083257600080fd5b50565b6000813590506108448161081e565b92915050565b6000602082840312156108605761085f610819565b5b600061086e84828501610835565b91505092915050565b600073ffffffffffffffffffffffffffffffffffffffff82169050919050565b60006108a282610877565b9050919050565b6108b281610897565b82525050565b60006020820190506108cd60008301846108a9565b92915050565b6108dc81610897565b81146108e757600080fd5b50565b6000813590506108f9816108d3565b92915050565b6000806040838503121561091657610915610819565b5b6000610924858286016108ea565b925050602061093585828601610835565b9150509250929050565b7f4e487b7100000000000000000000000000000000000000000000000000000000600052602260045260246000fd5b6000600282049050600182168061098657607f821691505b6020821081036109995761099861093f565b5b50919050565b7f596f75277265206e6f7420746865206f776e6572210000000000000000000000600082015250565b60006109d56015836106c7565b91506109e08261099f565b602082019050919050565b60006020820190508181036000830152610a04816109c8565b9050919050565b7f4e6f7420456e6f756768742042616c616e636520210000000000000000000000600082015250565b6000610a416015836106c7565b9150610a4c82610a0b565b602082019050919050565b60006020820190508181036000830152610a7081610a34565b9050919050565b6000604082019050610a8c60008301856108a9565b610a99602083018461074e565b9392505050565b600081519050610aaf8161081e565b92915050565b600060208284031215610acb57610aca610819565b5b6000610ad984828501610aa0565b91505092915050565b60008115159050919050565b610af781610ae2565b8114610b0257600080fd5b50565b600081519050610b1481610aee565b92915050565b600060208284031215610b3057610b2f610819565b5b6000610b3e84828501610b05565b91505092915050565b6000606082019050610b5c60008301866108a9565b610b6960208301856108a9565b610b76604083018461074e565b94935050505056fea2646970667358221220ac64614171ead62033036bd901aacee34f61bad1a76e8aaee069c6b61d403e4d64736f6c634300081100336a736f6e2868747470733a2f2f73706f7474792d61726561732d6561742d3132332d3233312d32312d3231352e6c6f63612e6c742f6170692f75736572732f363364323730663737656666373734653561316261313337292e6973416c697665a26469706673582212201c83f3409f4ddc2f74f3867c77c259d7072d32ce4695b283e111e87e4f69080d64736f6c63430008110033a26469706673582212203b48ed0e0300c5c081fdf9baf6b806c054accfe4a0acf2c94b858c79f37fabea64736f6c63430008110033",
  "immutableReferences": {},
  "source": "// SPDX-License-Identifier: UNLICENSED\r\npragma solidity ^0.8.17;\r\nimport \"./LockerFactory.sol\";\r\n\r\ncontract CryptoInheritor {\r\n    uint256 public lockerFactoryCount;\r\n    mapping(address => LockerFactory) private userToFactoryAddress;\r\n    event NewLockerFactory(LockerFactory lockerFactory, address owner);\r\n\r\n    function newLockerFactory() public payable {\r\n        require(\r\n            address(userToFactoryAddress[msg.sender]) == address(0x0),\r\n            \"You have already created a LockerFactory contract\"\r\n        );\r\n        LockerFactory lockerFactory = new LockerFactory();\r\n        lockerFactoryCount++;\r\n        userToFactoryAddress[msg.sender] = lockerFactory;\r\n        // payable(lockerFactory).transfer(msg.value);\r\n        emit NewLockerFactory(lockerFactory, msg.sender);\r\n    }\r\n\r\n    function getFactoryContractAddress() public view returns (LockerFactory) {\r\n        return userToFactoryAddress[msg.sender];\r\n    }\r\n}\r\n",
  "sourcePath": "C:\\Users\\Rasula\\Documents\\GitHub\\crypto-inheritor-react-frontend\\contracts\\CryptoInheritor.sol",
  "compiler": {
    "name": "solc",
    "version": "0.8.17+commit.8df45f5f.Emscripten.clang"
  },
  "schemaVersion": "3.4.11",
  "updatedAt": "2023-03-14T10:30:55.578Z",
  "networkType": "ethereum",
  "devdoc": {
    "kind": "dev",
    "methods": {},
    "version": 1
  },
  "userdoc": {
    "kind": "user",
    "methods": {},
    "version": 1
  }
}