{
  "contractName": "LockerFactory",
  "abi": [
    {
      "inputs": [],
      "stateMutability": "nonpayable",
      "type": "constructor"
    },
    {
      "anonymous": false,
      "inputs": [
        {
          "indexed": false,
          "internalType": "string",
          "name": "description",
          "type": "string"
        }
      ],
      "name": "LogNewProvableQuery",
      "type": "event"
    },
    {
      "anonymous": false,
      "inputs": [
        {
          "indexed": false,
          "internalType": "bytes32",
          "name": "id",
          "type": "bytes32"
        },
        {
          "indexed": false,
          "internalType": "string",
          "name": "data",
          "type": "string"
        }
      ],
      "name": "LogReceivedData",
      "type": "event"
    },
    {
      "anonymous": false,
      "inputs": [
        {
          "indexed": false,
          "internalType": "contract Locker",
          "name": "locker",
          "type": "address"
        },
        {
          "indexed": false,
          "internalType": "address",
          "name": "owner",
          "type": "address"
        }
      ],
      "name": "NewLocker",
      "type": "event"
    },
    {
      "inputs": [],
      "name": "contractOwner",
      "outputs": [
        {
          "internalType": "address",
          "name": "",
          "type": "address"
        }
      ],
      "stateMutability": "view",
      "type": "function",
      "constant": true
    },
    {
      "inputs": [],
      "name": "isAlive",
      "outputs": [
        {
          "internalType": "bool",
          "name": "",
          "type": "bool"
        }
      ],
      "stateMutability": "view",
      "type": "function",
      "constant": true
    },
    {
      "inputs": [
        {
          "internalType": "uint256",
          "name": "",
          "type": "uint256"
        }
      ],
      "name": "lockers",
      "outputs": [
        {
          "internalType": "contract Locker",
          "name": "",
          "type": "address"
        }
      ],
      "stateMutability": "view",
      "type": "function",
      "constant": true
    },
    {
      "stateMutability": "payable",
      "type": "receive",
      "payable": true
    },
    {
      "inputs": [
        {
          "internalType": "uint256",
          "name": "_index",
          "type": "uint256"
        }
      ],
      "name": "getLockerByIndex",
      "outputs": [
        {
          "internalType": "contract Locker",
          "name": "",
          "type": "address"
        }
      ],
      "stateMutability": "view",
      "type": "function",
      "constant": true
    },
    {
      "inputs": [],
      "name": "getNumberOfLockers",
      "outputs": [
        {
          "internalType": "uint256",
          "name": "",
          "type": "uint256"
        }
      ],
      "stateMutability": "view",
      "type": "function",
      "constant": true
    },
    {
      "inputs": [
        {
          "internalType": "string",
          "name": "_name",
          "type": "string"
        },
        {
          "internalType": "address",
          "name": "_beneficiary",
          "type": "address"
        }
      ],
      "name": "newLocker",
      "outputs": [],
      "stateMutability": "nonpayable",
      "type": "function"
    },
    {
      "inputs": [
        {
          "internalType": "bytes32",
          "name": "myid",
          "type": "bytes32"
        },
        {
          "internalType": "string",
          "name": "result",
          "type": "string"
        }
      ],
      "name": "__callback",
      "outputs": [],
      "stateMutability": "nonpayable",
      "type": "function"
    },
    {
      "inputs": [],
      "name": "getUser",
      "outputs": [],
      "stateMutability": "payable",
      "type": "function",
      "payable": true
    }
  ],
  "bytecode": "0x60806040526001600560006101000a81548160ff02191690831515021790555034801561002b57600080fd5b5033600760006101000a81548173ffffffffffffffffffffffffffffffffffffffff021916908373ffffffffffffffffffffffffffffffffffffffff160217905550731961a450025b5a5ab59b0ace7a0766fb511d82aa600160006101000a81548173ffffffffffffffffffffffffffffffffffffffff021916908373ffffffffffffffffffffffffffffffffffffffff16021790555061388b806100d16000396000f3fe6080604052600436106200008b5760003560e01c8063809aab921162000055578063809aab921462000168578063832880e714620001ac578063ce606ee014620001b8578063ef69a7bc14620001e85762000093565b806327dc297e14620000985780634136aa3514620000c65780634b88268d14620000f657806372286e8a146200013a5762000093565b366200009357005b600080fd5b348015620000a557600080fd5b50620000c46004803603810190620000be919062001a5d565b62000218565b005b348015620000d357600080fd5b50620000de62000330565b604051620000ed919062001ae0565b60405180910390f35b3480156200010357600080fd5b506200012260048036038101906200011c919062001b38565b62000343565b60405162000131919062001bf5565b60405180910390f35b3480156200014757600080fd5b5062000166600480360381019062000160919062001c57565b62000380565b005b3480156200017557600080fd5b506200019460048036038101906200018e919062001b38565b6200046f565b604051620001a3919062001bf5565b60405180910390f35b620001b6620004a2565b005b348015620001c557600080fd5b50620001d0620005bc565b604051620001df919062001cce565b60405180910390f35b348015620001f557600080fd5b5062000200620005e2565b6040516200020f919062001cfc565b60405180910390f35b62000222620005ec565b73ffffffffffffffffffffffffffffffffffffffff163373ffffffffffffffffffffffffffffffffffffffff16146200025a57600080fd5b7f6273151f959616268004b58dbb21e5c851b7b8d04498b4aabee12291d22fc034816040516020016200028e919062001d92565b6040516020818303038152906040528051906020012003620002cb576001600560006101000a81548160ff021916908315150217905550620002f1565b6000600560006101000a81548160ff021916908315150217905550620002f0620008e3565b5b7f144385391b548c2d638e864261d1788a2e3f52bc799b7e229b1d0b60920bc30482826040516200032492919062001e0e565b60405180910390a15050565b600560009054906101000a900460ff1681565b60006008600083815260200190815260200160002060009054906101000a900473ffffffffffffffffffffffffffffffffffffffff169050919050565b600082338360405162000393906200189e565b620003a19392919062001e42565b604051809103906000f080158015620003be573d6000803e3d6000fd5b5090508060086000600654815260200190815260200160002060006101000a81548173ffffffffffffffffffffffffffffffffffffffff021916908373ffffffffffffffffffffffffffffffffffffffff160217905550600660008154809291906200042a9062001eb5565b91905055507f69253c7023f628e3a302b63087a3bfc1dfdb256780182f81b9f0df9eff9542b081336040516200046292919062001f02565b60405180910390a1505050565b60086020528060005260406000206000915054906101000a900473ffffffffffffffffffffffffffffffffffffffff1681565b47620004e36040518060400160405280600381526020017f55524c00000000000000000000000000000000000000000000000000000000008152506200099f565b111562000527577fc4dc360d0a9c0677a3379ae0a3d81e887f761e65fdf3d7e00859d1bcd3c47389604051620005199062001fcb565b60405180910390a1620005ba565b7fc4dc360d0a9c0677a3379ae0a3d81e887f761e65fdf3d7e00859d1bcd3c47389604051620005569062002063565b60405180910390a1620005b86040518060400160405280600381526020017f55524c00000000000000000000000000000000000000000000000000000000008152506040518060a00160405280606d8152602001620037e9606d913962000ca5565b505b565b600760009054906101000a900473ffffffffffffffffffffffffffffffffffffffff1681565b6000600654905090565b60008073ffffffffffffffffffffffffffffffffffffffff16600160009054906101000a900473ffffffffffffffffffffffffffffffffffffffff1673ffffffffffffffffffffffffffffffffffffffff161480620006775750600062000675600160009054906101000a900473ffffffffffffffffffffffffffffffffffffffff1662001095565b145b156200068b57620006896000620010a0565b505b600160009054906101000a900473ffffffffffffffffffffffffffffffffffffffff1673ffffffffffffffffffffffffffffffffffffffff166338cc48316040518163ffffffff1660e01b81526004016020604051808303816000875af1158015620006fb573d6000803e3d6000fd5b505050506040513d601f19601f820116820180604052508101906200072191906200209c565b73ffffffffffffffffffffffffffffffffffffffff1660008054906101000a900473ffffffffffffffffffffffffffffffffffffffff1673ffffffffffffffffffffffffffffffffffffffff16146200084a57600160009054906101000a900473ffffffffffffffffffffffffffffffffffffffff1673ffffffffffffffffffffffffffffffffffffffff166338cc48316040518163ffffffff1660e01b81526004016020604051808303816000875af1158015620007e4573d6000803e3d6000fd5b505050506040513d601f19601f820116820180604052508101906200080a91906200209c565b6000806101000a81548173ffffffffffffffffffffffffffffffffffffffff021916908373ffffffffffffffffffffffffffffffffffffffff1602179055505b60008054906101000a900473ffffffffffffffffffffffffffffffffffffffff1673ffffffffffffffffffffffffffffffffffffffff1663c281d19e6040518163ffffffff1660e01b81526004016020604051808303816000875af1158015620008b8573d6000803e3d6000fd5b505050506040513d601f19601f82011682018060405250810190620008de91906200209c565b905090565b60005b6006548110156200099c576008600082815260200190815260200160002060009054906101000a900473ffffffffffffffffffffffffffffffffffffffff1673ffffffffffffffffffffffffffffffffffffffff1663681024c46040518163ffffffff1660e01b8152600401600060405180830381600087803b1580156200096d57600080fd5b505af115801562000982573d6000803e3d6000fd5b505050508080620009939062001eb5565b915050620008e6565b50565b60008073ffffffffffffffffffffffffffffffffffffffff16600160009054906101000a900473ffffffffffffffffffffffffffffffffffffffff1673ffffffffffffffffffffffffffffffffffffffff16148062000a2a5750600062000a28600160009054906101000a900473ffffffffffffffffffffffffffffffffffffffff1662001095565b145b1562000a3e5762000a3c6000620010a0565b505b600160009054906101000a900473ffffffffffffffffffffffffffffffffffffffff1673ffffffffffffffffffffffffffffffffffffffff166338cc48316040518163ffffffff1660e01b81526004016020604051808303816000875af115801562000aae573d6000803e3d6000fd5b505050506040513d601f19601f8201168201806040525081019062000ad491906200209c565b73ffffffffffffffffffffffffffffffffffffffff1660008054906101000a900473ffffffffffffffffffffffffffffffffffffffff1673ffffffffffffffffffffffffffffffffffffffff161462000bfd57600160009054906101000a900473ffffffffffffffffffffffffffffffffffffffff1673ffffffffffffffffffffffffffffffffffffffff166338cc48316040518163ffffffff1660e01b81526004016020604051808303816000875af115801562000b97573d6000803e3d6000fd5b505050506040513d601f19601f8201168201806040525081019062000bbd91906200209c565b6000806101000a81548173ffffffffffffffffffffffffffffffffffffffff021916908373ffffffffffffffffffffffffffffffffffffffff1602179055505b60008054906101000a900473ffffffffffffffffffffffffffffffffffffffff1673ffffffffffffffffffffffffffffffffffffffff1663524f3889836040518263ffffffff1660e01b815260040162000c589190620020ce565b6020604051808303816000875af115801562000c78573d6000803e3d6000fd5b505050506040513d601f19601f8201168201806040525081019062000c9e919062002109565b9050919050565b60008073ffffffffffffffffffffffffffffffffffffffff16600160009054906101000a900473ffffffffffffffffffffffffffffffffffffffff1673ffffffffffffffffffffffffffffffffffffffff16148062000d305750600062000d2e600160009054906101000a900473ffffffffffffffffffffffffffffffffffffffff1662001095565b145b1562000d445762000d426000620010a0565b505b600160009054906101000a900473ffffffffffffffffffffffffffffffffffffffff1673ffffffffffffffffffffffffffffffffffffffff166338cc48316040518163ffffffff1660e01b81526004016020604051808303816000875af115801562000db4573d6000803e3d6000fd5b505050506040513d601f19601f8201168201806040525081019062000dda91906200209c565b73ffffffffffffffffffffffffffffffffffffffff1660008054906101000a900473ffffffffffffffffffffffffffffffffffffffff1673ffffffffffffffffffffffffffffffffffffffff161462000f0357600160009054906101000a900473ffffffffffffffffffffffffffffffffffffffff1673ffffffffffffffffffffffffffffffffffffffff166338cc48316040518163ffffffff1660e01b81526004016020604051808303816000875af115801562000e9d573d6000803e3d6000fd5b505050506040513d601f19601f8201168201806040525081019062000ec391906200209c565b6000806101000a81548173ffffffffffffffffffffffffffffffffffffffff021916908373ffffffffffffffffffffffffffffffffffffffff1602179055505b60008060009054906101000a900473ffffffffffffffffffffffffffffffffffffffff1673ffffffffffffffffffffffffffffffffffffffff1663524f3889856040518263ffffffff1660e01b815260040162000f619190620020ce565b6020604051808303816000875af115801562000f81573d6000803e3d6000fd5b505050506040513d601f19601f8201168201806040525081019062000fa7919062002109565b905062030d403a62000fba91906200213b565b670de0b6b3a764000062000fcf919062002186565b81111562000fe4576000801b9150506200108f565b60008054906101000a900473ffffffffffffffffffffffffffffffffffffffff1673ffffffffffffffffffffffffffffffffffffffff1663adf59f9982600087876040518563ffffffff1660e01b8152600401620010459392919062002204565b60206040518083038185885af115801562001064573d6000803e3d6000fd5b50505050506040513d601f19601f820116820180604052508101906200108b919062002266565b9150505b92915050565b6000813b9050919050565b6000620010ac620010b3565b9050919050565b600080620010d5731d3b2638a7cc9f2cb3d298a3da7a90b67e5506ed62001095565b11156200117b57731d3b2638a7cc9f2cb3d298a3da7a90b67e5506ed600160006101000a81548173ffffffffffffffffffffffffffffffffffffffff021916908373ffffffffffffffffffffffffffffffffffffffff160217905550620011716040518060400160405280600b81526020017f6574685f6d61696e6e657400000000000000000000000000000000000000000081525062001889565b6001905062001886565b60006200119c73c03a2615d5efaf5f49f60b7bb6583eaec212fdf162001095565b1115620012425773c03a2615d5efaf5f49f60b7bb6583eaec212fdf1600160006101000a81548173ffffffffffffffffffffffffffffffffffffffff021916908373ffffffffffffffffffffffffffffffffffffffff160217905550620012386040518060400160405280600c81526020017f6574685f726f707374656e33000000000000000000000000000000000000000081525062001889565b6001905062001886565b60006200126373b7a07bcf2ba2f2703b24c0691b5278999c59ac7e62001095565b1115620013095773b7a07bcf2ba2f2703b24c0691b5278999c59ac7e600160006101000a81548173ffffffffffffffffffffffffffffffffffffffff021916908373ffffffffffffffffffffffffffffffffffffffff160217905550620012ff6040518060400160405280600981526020017f6574685f6b6f76616e000000000000000000000000000000000000000000000081525062001889565b6001905062001886565b60006200132a73146500cfd35b22e4a392fe0adc06de1a1368ed4862001095565b1115620013d05773146500cfd35b22e4a392fe0adc06de1a1368ed48600160006101000a81548173ffffffffffffffffffffffffffffffffffffffff021916908373ffffffffffffffffffffffffffffffffffffffff160217905550620013c66040518060400160405280600b81526020017f6574685f72696e6b65627900000000000000000000000000000000000000000081525062001889565b6001905062001886565b6000620013f173a2998efd205fb9d4b4963afb70778d6354ad3a4162001095565b1115620014975773a2998efd205fb9d4b4963afb70778d6354ad3a41600160006101000a81548173ffffffffffffffffffffffffffffffffffffffff021916908373ffffffffffffffffffffffffffffffffffffffff1602179055506200148d6040518060400160405280600a81526020017f6574685f676f65726c690000000000000000000000000000000000000000000081525062001889565b6001905062001886565b6000620014b87390a0f94702c9630036fb9846b52bf31a1c991a8462001095565b11156200155e577390a0f94702c9630036fb9846b52bf31a1c991a84600160006101000a81548173ffffffffffffffffffffffffffffffffffffffff021916908373ffffffffffffffffffffffffffffffffffffffff160217905550620015546040518060400160405280600b81526020017f6273635f6d61696e6e657400000000000000000000000000000000000000000081525062001889565b6001905062001886565b60006200157f73816ec2af1b56183f82f8c05759e99fec3c3de60962001095565b1115620016255773816ec2af1b56183f82f8c05759e99fec3c3de609600160006101000a81548173ffffffffffffffffffffffffffffffffffffffff021916908373ffffffffffffffffffffffffffffffffffffffff1602179055506200161b6040518060400160405280600f81526020017f706f6c79676f6e5f6d61696e6e6574000000000000000000000000000000000081525062001889565b6001905062001886565b6000620016467314b31a1c66a9f3d18dfac2d123fe8ce5847b7f8562001095565b1115620016ec577314b31a1c66a9f3d18dfac2d123fe8ce5847b7f85600160006101000a81548173ffffffffffffffffffffffffffffffffffffffff021916908373ffffffffffffffffffffffffffffffffffffffff160217905550620016e26040518060400160405280600f81526020017f7365706f6c69615f6d61696e6e6574000000000000000000000000000000000081525062001889565b6001905062001886565b60006200170d736f485c8bf6fc43ea212e93bbf8ce046c7f1cb47562001095565b11156200177357736f485c8bf6fc43ea212e93bbf8ce046c7f1cb475600160006101000a81548173ffffffffffffffffffffffffffffffffffffffff021916908373ffffffffffffffffffffffffffffffffffffffff1602179055506001905062001886565b6000620017947320e12a1f859b3feae5fb2a0a32c18f5a65555bbf62001095565b1115620017fa577320e12a1f859b3feae5fb2a0a32c18f5a65555bbf600160006101000a81548173ffffffffffffffffffffffffffffffffffffffff021916908373ffffffffffffffffffffffffffffffffffffffff1602179055506001905062001886565b60006200181b7351efaf4c8b3c9afbd5ab9f4bbc82784ab6ef8faa62001095565b111562001881577351efaf4c8b3c9afbd5ab9f4bbc82784ab6ef8faa600160006101000a81548173ffffffffffffffffffffffffffffffffffffffff021916908373ffffffffffffffffffffffffffffffffffffffff1602179055506001905062001886565b600090505b90565b80600290816200189a9190620024c4565b5050565b61123d80620025ac83390190565b6000604051905090565b600080fd5b600080fd5b6000819050919050565b620018d581620018c0565b8114620018e157600080fd5b50565b600081359050620018f581620018ca565b92915050565b600080fd5b600080fd5b6000601f19601f8301169050919050565b7f4e487b7100000000000000000000000000000000000000000000000000000000600052604160045260246000fd5b620019508262001905565b810181811067ffffffffffffffff8211171562001972576200197162001916565b5b80604052505050565b600062001987620018ac565b905062001995828262001945565b919050565b600067ffffffffffffffff821115620019b857620019b762001916565b5b620019c38262001905565b9050602081019050919050565b82818337600083830152505050565b6000620019f6620019f0846200199a565b6200197b565b90508281526020810184848401111562001a155762001a1462001900565b5b62001a22848285620019d0565b509392505050565b600082601f83011262001a425762001a41620018fb565b5b813562001a54848260208601620019df565b91505092915050565b6000806040838503121562001a775762001a76620018b6565b5b600062001a8785828601620018e4565b925050602083013567ffffffffffffffff81111562001aab5762001aaa620018bb565b5b62001ab98582860162001a2a565b9150509250929050565b60008115159050919050565b62001ada8162001ac3565b82525050565b600060208201905062001af7600083018462001acf565b92915050565b6000819050919050565b62001b128162001afd565b811462001b1e57600080fd5b50565b60008135905062001b328162001b07565b92915050565b60006020828403121562001b515762001b50620018b6565b5b600062001b618482850162001b21565b91505092915050565b600073ffffffffffffffffffffffffffffffffffffffff82169050919050565b6000819050919050565b600062001bb562001baf62001ba98462001b6a565b62001b8a565b62001b6a565b9050919050565b600062001bc98262001b94565b9050919050565b600062001bdd8262001bbc565b9050919050565b62001bef8162001bd0565b82525050565b600060208201905062001c0c600083018462001be4565b92915050565b600062001c1f8262001b6a565b9050919050565b62001c318162001c12565b811462001c3d57600080fd5b50565b60008135905062001c518162001c26565b92915050565b6000806040838503121562001c715762001c70620018b6565b5b600083013567ffffffffffffffff81111562001c925762001c91620018bb565b5b62001ca08582860162001a2a565b925050602062001cb38582860162001c40565b9150509250929050565b62001cc88162001c12565b82525050565b600060208201905062001ce5600083018462001cbd565b92915050565b62001cf68162001afd565b82525050565b600060208201905062001d13600083018462001ceb565b92915050565b600081519050919050565b600081905092915050565b60005b8381101562001d4f57808201518184015260208101905062001d32565b60008484015250505050565b600062001d688262001d19565b62001d74818562001d24565b935062001d8681856020860162001d2f565b80840191505092915050565b600062001da0828462001d5b565b915081905092915050565b62001db681620018c0565b82525050565b600082825260208201905092915050565b600062001dda8262001d19565b62001de6818562001dbc565b935062001df881856020860162001d2f565b62001e038162001905565b840191505092915050565b600060408201905062001e25600083018562001dab565b818103602083015262001e39818462001dcd565b90509392505050565b6000606082019050818103600083015262001e5e818662001dcd565b905062001e6f602083018562001cbd565b62001e7e604083018462001cbd565b949350505050565b7f4e487b7100000000000000000000000000000000000000000000000000000000600052601160045260246000fd5b600062001ec28262001afd565b91507fffffffffffffffffffffffffffffffffffffffffffffffffffffffffffffffff820362001ef75762001ef662001e86565b5b600182019050919050565b600060408201905062001f19600083018562001be4565b62001f28602083018462001cbd565b9392505050565b7f50726f7661626c6520717565727920776173204e4f542073656e742c20706c6560008201527f6173652061646420736f6d652045544820746f20636f76657220666f7220746860208201527f6520717565727920666565000000000000000000000000000000000000000000604082015250565b600062001fb3604b8362001dbc565b915062001fc08262001f2f565b606082019050919050565b6000602082019050818103600083015262001fe68162001fa4565b9050919050565b7f50726f7661626c65207175657279207761732073656e742c207374616e64696e60008201527f6720627920666f722074686520616e737765722e2e0000000000000000000000602082015250565b60006200204b60358362001dbc565b9150620020588262001fed565b604082019050919050565b600060208201905081810360008301526200207e816200203c565b9050919050565b600081519050620020968162001c26565b92915050565b600060208284031215620020b557620020b4620018b6565b5b6000620020c58482850162002085565b91505092915050565b60006020820190508181036000830152620020ea818462001dcd565b905092915050565b600081519050620021038162001b07565b92915050565b600060208284031215620021225762002121620018b6565b5b60006200213284828501620020f2565b91505092915050565b6000620021488262001afd565b9150620021558362001afd565b9250828202620021658162001afd565b915082820484148315176200217f576200217e62001e86565b5b5092915050565b6000620021938262001afd565b9150620021a08362001afd565b9250828201905080821115620021bb57620021ba62001e86565b5b92915050565b6000819050919050565b6000620021ec620021e6620021e084620021c1565b62001b8a565b62001afd565b9050919050565b620021fe81620021cb565b82525050565b60006060820190506200221b6000830186620021f3565b81810360208301526200222f818562001dcd565b9050818103604083015262002245818462001dcd565b9050949350505050565b6000815190506200226081620018ca565b92915050565b6000602082840312156200227f576200227e620018b6565b5b60006200228f848285016200224f565b91505092915050565b7f4e487b7100000000000000000000000000000000000000000000000000000000600052602260045260246000fd5b60006002820490506001821680620022e057607f821691505b602082108103620022f657620022f562002298565b5b50919050565b60008190508160005260206000209050919050565b60006020601f8301049050919050565b600082821b905092915050565b600060088302620023607fffffffffffffffffffffffffffffffffffffffffffffffffffffffffffffffff8262002321565b6200236c868362002321565b95508019841693508086168417925050509392505050565b6000620023a56200239f620023998462001afd565b62001b8a565b62001afd565b9050919050565b6000819050919050565b620023c18362002384565b620023d9620023d082620023ac565b8484546200232e565b825550505050565b600090565b620023f0620023e1565b620023fd818484620023b6565b505050565b5b81811015620024255762002419600082620023e6565b60018101905062002403565b5050565b601f82111562002474576200243e81620022fc565b620024498462002311565b8101602085101562002459578190505b62002471620024688562002311565b83018262002402565b50505b505050565b600082821c905092915050565b6000620024996000198460080262002479565b1980831691505092915050565b6000620024b4838362002486565b9150826002028217905092915050565b620024cf8262001d19565b67ffffffffffffffff811115620024eb57620024ea62001916565b5b620024f78254620022c7565b6200250482828562002429565b600060209050601f8311600181146200253c576000841562002527578287015190505b620025338582620024a6565b865550620025a3565b601f1984166200254c86620022fc565b60005b8281101562002576578489015182556001820191506020850194506020810190506200254f565b8683101562002596578489015162002592601f89168262002486565b8355505b6001600288020188555050505b50505050505056fe60806040523480156200001157600080fd5b506040516200123d3803806200123d8339818101604052810190620000379190620002cc565b826000908162000048919062000592565b5081600160006101000a81548173ffffffffffffffffffffffffffffffffffffffff021916908373ffffffffffffffffffffffffffffffffffffffff16021790555080600260006101000a81548173ffffffffffffffffffffffffffffffffffffffff021916908373ffffffffffffffffffffffffffffffffffffffff16021790555050505062000679565b6000604051905090565b600080fd5b600080fd5b600080fd5b600080fd5b6000601f19601f8301169050919050565b7f4e487b7100000000000000000000000000000000000000000000000000000000600052604160045260246000fd5b6200013d82620000f2565b810181811067ffffffffffffffff821117156200015f576200015e62000103565b5b80604052505050565b600062000174620000d4565b905062000182828262000132565b919050565b600067ffffffffffffffff821115620001a557620001a462000103565b5b620001b082620000f2565b9050602081019050919050565b60005b83811015620001dd578082015181840152602081019050620001c0565b60008484015250505050565b600062000200620001fa8462000187565b62000168565b9050828152602081018484840111156200021f576200021e620000ed565b5b6200022c848285620001bd565b509392505050565b600082601f8301126200024c576200024b620000e8565b5b81516200025e848260208601620001e9565b91505092915050565b600073ffffffffffffffffffffffffffffffffffffffff82169050919050565b6000620002948262000267565b9050919050565b620002a68162000287565b8114620002b257600080fd5b50565b600081519050620002c6816200029b565b92915050565b600080600060608486031215620002e857620002e7620000de565b5b600084015167ffffffffffffffff811115620003095762000308620000e3565b5b620003178682870162000234565b93505060206200032a86828701620002b5565b92505060406200033d86828701620002b5565b9150509250925092565b600081519050919050565b7f4e487b7100000000000000000000000000000000000000000000000000000000600052602260045260246000fd5b600060028204905060018216806200039a57607f821691505b602082108103620003b057620003af62000352565b5b50919050565b60008190508160005260206000209050919050565b60006020601f8301049050919050565b600082821b905092915050565b6000600883026200041a7fffffffffffffffffffffffffffffffffffffffffffffffffffffffffffffffff82620003db565b620004268683620003db565b95508019841693508086168417925050509392505050565b6000819050919050565b6000819050919050565b6000620004736200046d62000467846200043e565b62000448565b6200043e565b9050919050565b6000819050919050565b6200048f8362000452565b620004a76200049e826200047a565b848454620003e8565b825550505050565b600090565b620004be620004af565b620004cb81848462000484565b505050565b5b81811015620004f357620004e7600082620004b4565b600181019050620004d1565b5050565b601f82111562000542576200050c81620003b6565b6200051784620003cb565b8101602085101562000527578190505b6200053f6200053685620003cb565b830182620004d0565b50505b505050565b600082821c905092915050565b6000620005676000198460080262000547565b1980831691505092915050565b600062000582838362000554565b9150826002028217905092915050565b6200059d8262000347565b67ffffffffffffffff811115620005b957620005b862000103565b5b620005c5825462000381565b620005d2828285620004f7565b600060209050601f8311600181146200060a5760008415620005f5578287015190505b62000601858262000574565b86555062000671565b601f1984166200061a86620003b6565b60005b8281101562000644578489015182556001820191506020850194506020810190506200061d565b8683101562000664578489015162000660601f89168262000554565b8355505b6001600288020188555050505b505050505050565b610bb480620006896000396000f3fe6080604052600436106100595760003560e01c806306fdde031461012c5780632e1a7d4d1461015757806338af3eed14610180578063681024c4146101ab5780638da5cb5b146101c2578063a1db9782146101ed57610127565b3661012757600160009054906101000a900473ffffffffffffffffffffffffffffffffffffffff1673ffffffffffffffffffffffffffffffffffffffff163373ffffffffffffffffffffffffffffffffffffffff16146100ee576040517f08c379a00000000000000000000000000000000000000000000000000000000081526004016100e590610724565b60405180910390fd5b7fa8142743f8f70a4c26f3691cf4ed59718381fb2f18070ec52be1f1022d8555573460405161011d919061075d565b60405180910390a1005b600080fd5b34801561013857600080fd5b50610141610216565b60405161014e91906107f7565b60405180910390f35b34801561016357600080fd5b5061017e6004803603810190610179919061084a565b6102a4565b005b34801561018c57600080fd5b506101956103fa565b6040516101a291906108b8565b60405180910390f35b3480156101b757600080fd5b506101c0610420565b005b3480156101ce57600080fd5b506101d761048b565b6040516101e491906108b8565b60405180910390f35b3480156101f957600080fd5b50610214600480360381019061020f91906108ff565b6104b1565b005b600080546102239061096e565b80601f016020809104026020016040519081016040528092919081815260200182805461024f9061096e565b801561029c5780601f106102715761010080835404028352916020019161029c565b820191906000526020600020905b81548152906001019060200180831161027f57829003601f168201915b505050505081565b600160009054906101000a900473ffffffffffffffffffffffffffffffffffffffff1673ffffffffffffffffffffffffffffffffffffffff163373ffffffffffffffffffffffffffffffffffffffff1614610334576040517f08c379a000000000000000000000000000000000000000000000000000000000815260040161032b906109eb565b60405180910390fd5b80471015610377576040517f08c379a000000000000000000000000000000000000000000000000000000000815260040161036e90610a57565b60405180910390fd5b3373ffffffffffffffffffffffffffffffffffffffff166108fc829081150290604051600060405180830381858888f193505050501580156103bd573d6000803e3d6000fd5b507fb244b9a17ad633c6e83b7983ee04320484956a68ddbe96a0b70dfca1cf19d72333826040516103ef929190610a77565b60405180910390a150565b600260009054906101000a900473ffffffffffffffffffffffffffffffffffffffff1681565b600260009054906101000a900473ffffffffffffffffffffffffffffffffffffffff1673ffffffffffffffffffffffffffffffffffffffff166108fc479081150290604051600060405180830381858888f19350505050158015610488573d6000803e3d6000fd5b50565b600160009054906101000a900473ffffffffffffffffffffffffffffffffffffffff1681565b600160009054906101000a900473ffffffffffffffffffffffffffffffffffffffff1673ffffffffffffffffffffffffffffffffffffffff163373ffffffffffffffffffffffffffffffffffffffff1614610541576040517f08c379a0000000000000000000000000000000000000000000000000000000008152600401610538906109eb565b60405180910390fd5b600082905060008173ffffffffffffffffffffffffffffffffffffffff166370a08231306040518263ffffffff1660e01b815260040161058191906108b8565b602060405180830381865afa15801561059e573d6000803e3d6000fd5b505050506040513d601f19601f820116820180604052508101906105c29190610ab5565b905082811015610607576040517f08c379a00000000000000000000000000000000000000000000000000000000081526004016105fe90610a57565b60405180910390fd5b8173ffffffffffffffffffffffffffffffffffffffff1663a9059cbb33856040518363ffffffff1660e01b8152600401610642929190610a77565b6020604051808303816000875af1158015610661573d6000803e3d6000fd5b505050506040513d601f19601f820116820180604052508101906106859190610b1a565b507fa14466d832b5a1ff01be72c58e51196498a8e10751ab9c227fe73c4730dedc418433856040516106b993929190610b47565b60405180910390a150505050565b600082825260208201905092915050565b7f4e6f74204f776e65720000000000000000000000000000000000000000000000600082015250565b600061070e6009836106c7565b9150610719826106d8565b602082019050919050565b6000602082019050818103600083015261073d81610701565b9050919050565b6000819050919050565b61075781610744565b82525050565b6000602082019050610772600083018461074e565b92915050565b600081519050919050565b60005b838110156107a1578082015181840152602081019050610786565b60008484015250505050565b6000601f19601f8301169050919050565b60006107c982610778565b6107d381856106c7565b93506107e3818560208601610783565b6107ec816107ad565b840191505092915050565b6000602082019050818103600083015261081181846107be565b905092915050565b600080fd5b61082781610744565b811461083257600080fd5b50565b6000813590506108448161081e565b92915050565b6000602082840312156108605761085f610819565b5b600061086e84828501610835565b91505092915050565b600073ffffffffffffffffffffffffffffffffffffffff82169050919050565b60006108a282610877565b9050919050565b6108b281610897565b82525050565b60006020820190506108cd60008301846108a9565b92915050565b6108dc81610897565b81146108e757600080fd5b50565b6000813590506108f9816108d3565b92915050565b6000806040838503121561091657610915610819565b5b6000610924858286016108ea565b925050602061093585828601610835565b9150509250929050565b7f4e487b7100000000000000000000000000000000000000000000000000000000600052602260045260246000fd5b6000600282049050600182168061098657607f821691505b6020821081036109995761099861093f565b5b50919050565b7f4e6f7420416c6c6f776564210000000000000000000000000000000000000000600082015250565b60006109d5600c836106c7565b91506109e08261099f565b602082019050919050565b60006020820190508181036000830152610a04816109c8565b9050919050565b7f4e6f7420456e6f756768742042616c616e636520210000000000000000000000600082015250565b6000610a416015836106c7565b9150610a4c82610a0b565b602082019050919050565b60006020820190508181036000830152610a7081610a34565b9050919050565b6000604082019050610a8c60008301856108a9565b610a99602083018461074e565b9392505050565b600081519050610aaf8161081e565b92915050565b600060208284031215610acb57610aca610819565b5b6000610ad984828501610aa0565b91505092915050565b60008115159050919050565b610af781610ae2565b8114610b0257600080fd5b50565b600081519050610b1481610aee565b92915050565b600060208284031215610b3057610b2f610819565b5b6000610b3e84828501610b05565b91505092915050565b6000606082019050610b5c60008301866108a9565b610b6960208301856108a9565b610b76604083018461074e565b94935050505056fea2646970667358221220f9c482b5c7e2f8c69615727452746eae5ffb3c5866113adbf6d27a420446379a64736f6c634300081100336a736f6e28687474703a2f2f616534632d323430322d643030302d383130382d343839392d343931652d323838322d393463662d396564362e6e67726f6b2e696f2f6170692f75736572732f363364323730663737656666373734653561316261313337292e6973416c697665a264697066735822122099486a33f556ff6e8850879d931886b1a62d97ff06f0682ca56aa7b0912b37ef64736f6c63430008110033",
  "immutableReferences": {},
  "source": "// SPDX-License-Identifier: UNLICENSED\r\npragma solidity ^0.8.17;\r\nimport \"./Locker.sol\";\r\nimport \"./provable/provableAPI.sol\";\r\n\r\ncontract LockerFactory is usingProvable {\r\n    bool public isAlive = true;\r\n    uint256 numberOfLockers;\r\n    address public contractOwner;\r\n    mapping(uint256 => Locker) public lockers;\r\n\r\n    constructor() {\r\n        contractOwner = msg.sender;\r\n        OAR = OracleAddrResolverI(0x1961a450025B5a5ab59B0Ace7a0766Fb511D82AA);\r\n    }\r\n\r\n    event NewLocker(Locker locker, address owner);\r\n    event LogReceivedData(bytes32 id, string data);\r\n    event LogNewProvableQuery(string description);\r\n\r\n    // get a single locker of sender by ID\r\n    function getLockerByIndex(uint256 _index) public view returns (Locker) {\r\n        return lockers[_index];\r\n    }\r\n\r\n    function getNumberOfLockers() public view returns (uint256) {\r\n        return numberOfLockers;\r\n    }\r\n\r\n    // create new locker\r\n    function newLocker(string memory _name, address _beneficiary) public {\r\n        Locker locker = new Locker(_name, msg.sender, _beneficiary);\r\n\r\n        // Add mapping\r\n        lockers[numberOfLockers] = locker;\r\n        numberOfLockers++;\r\n\r\n        // emit new locker event\r\n        emit NewLocker(locker, msg.sender);\r\n    }\r\n\r\n    function triggerFundTransfer() private {\r\n        for (uint256 i = 0; i < numberOfLockers; i++) {\r\n            lockers[i].transferFundsToBeneficiary();\r\n        }\r\n    }\r\n\r\n    // PROVABLE ORACLE FUNCTIONS\r\n    function __callback(bytes32 myid, string memory result) public {\r\n        if (msg.sender != provable_cbAddress()) revert();\r\n        if (keccak256(abi.encodePacked(result)) == keccak256(\"true\")) {\r\n            isAlive = true;\r\n        } else {\r\n            isAlive = false;\r\n            triggerFundTransfer();\r\n        }\r\n        emit LogReceivedData(myid, result);\r\n    }\r\n\r\n    function getUser() public payable {\r\n        if (provable_getPrice(\"URL\") > address(this).balance) {\r\n            emit LogNewProvableQuery(\r\n                \"Provable query was NOT sent, please add some ETH to cover for the query fee\"\r\n            );\r\n        } else {\r\n            emit LogNewProvableQuery(\r\n                \"Provable query was sent, standing by for the answer..\"\r\n            );\r\n            provable_query(\r\n                \"URL\",\r\n                \"json(http://ae4c-2402-d000-8108-4899-491e-2882-94cf-9ed6.ngrok.io/api/users/63d270f77eff774e5a1ba137).isAlive\"\r\n            );\r\n        }\r\n    }\r\n\r\n    receive() external payable {}\r\n}\r\n",
  "sourcePath": "C:\\Users\\Rasula\\Documents\\GitHub\\crypto-inheritor-react-frontend\\contracts\\LockerFactory.sol",
  "compiler": {
    "name": "solc",
    "version": "0.8.17+commit.8df45f5f.Emscripten.clang"
  },
  "schemaVersion": "3.4.11",
  "updatedAt": "2023-02-12T15:05:45.675Z",
  "networkType": "ethereum",
  "devdoc": {
    "kind": "dev",
    "methods": {},
    "version": 1
  },
  "userdoc": {
    "kind": "user",
    "methods": {},
    "version": 1
  }
}