{
  "contractName": "Locker",
  "abi": [
    {
      "inputs": [
        {
          "internalType": "string",
          "name": "_name",
          "type": "string"
        },
        {
          "internalType": "address",
          "name": "_owner",
          "type": "address"
        },
        {
          "internalType": "address",
          "name": "_beneficiary",
          "type": "address"
        }
      ],
      "stateMutability": "nonpayable",
      "type": "constructor"
    },
    {
      "anonymous": false,
      "inputs": [
        {
          "indexed": false,
          "internalType": "uint256",
          "name": "amount",
          "type": "uint256"
        }
      ],
      "name": "Received",
      "type": "event"
    },
    {
      "anonymous": false,
      "inputs": [
        {
          "indexed": false,
          "internalType": "address",
          "name": "by",
          "type": "address"
        },
        {
          "indexed": false,
          "internalType": "uint256",
          "name": "amount",
          "type": "uint256"
        }
      ],
      "name": "Withdrew",
      "type": "event"
    },
    {
      "anonymous": false,
      "inputs": [
        {
          "indexed": false,
          "internalType": "address",
          "name": "token",
          "type": "address"
        },
        {
          "indexed": false,
          "internalType": "address",
          "name": "by",
          "type": "address"
        },
        {
          "indexed": false,
          "internalType": "uint256",
          "name": "amount",
          "type": "uint256"
        }
      ],
      "name": "WithdrewERC20",
      "type": "event"
    },
    {
      "inputs": [],
      "name": "beneficiary",
      "outputs": [
        {
          "internalType": "address",
          "name": "",
          "type": "address"
        }
      ],
      "stateMutability": "view",
      "type": "function"
    },
    {
      "inputs": [],
      "name": "name",
      "outputs": [
        {
          "internalType": "string",
          "name": "",
          "type": "string"
        }
      ],
      "stateMutability": "view",
      "type": "function"
    },
    {
      "inputs": [],
      "name": "owner",
      "outputs": [
        {
          "internalType": "address",
          "name": "",
          "type": "address"
        }
      ],
      "stateMutability": "view",
      "type": "function"
    },
    {
      "stateMutability": "payable",
      "type": "receive"
    },
    {
      "inputs": [
        {
          "internalType": "address",
          "name": "_tokenAddress",
          "type": "address"
        },
        {
          "internalType": "uint256",
          "name": "_amount",
          "type": "uint256"
        }
      ],
      "name": "withdrawERC20",
      "outputs": [],
      "stateMutability": "nonpayable",
      "type": "function"
    },
    {
      "inputs": [
        {
          "internalType": "uint256",
          "name": "_amount",
          "type": "uint256"
        }
      ],
      "name": "withdraw",
      "outputs": [],
      "stateMutability": "nonpayable",
      "type": "function"
    },
    {
      "inputs": [],
      "name": "transferFundsToBeneficiary",
      "outputs": [],
      "stateMutability": "nonpayable",
      "type": "function"
    }
  ],
  "bytecode": "0x60806040523480156200001157600080fd5b506040516200123d3803806200123d8339818101604052810190620000379190620002cc565b826000908162000048919062000592565b5081600160006101000a81548173ffffffffffffffffffffffffffffffffffffffff021916908373ffffffffffffffffffffffffffffffffffffffff16021790555080600260006101000a81548173ffffffffffffffffffffffffffffffffffffffff021916908373ffffffffffffffffffffffffffffffffffffffff16021790555050505062000679565b6000604051905090565b600080fd5b600080fd5b600080fd5b600080fd5b6000601f19601f8301169050919050565b7f4e487b7100000000000000000000000000000000000000000000000000000000600052604160045260246000fd5b6200013d82620000f2565b810181811067ffffffffffffffff821117156200015f576200015e62000103565b5b80604052505050565b600062000174620000d4565b905062000182828262000132565b919050565b600067ffffffffffffffff821115620001a557620001a462000103565b5b620001b082620000f2565b9050602081019050919050565b60005b83811015620001dd578082015181840152602081019050620001c0565b60008484015250505050565b600062000200620001fa8462000187565b62000168565b9050828152602081018484840111156200021f576200021e620000ed565b5b6200022c848285620001bd565b509392505050565b600082601f8301126200024c576200024b620000e8565b5b81516200025e848260208601620001e9565b91505092915050565b600073ffffffffffffffffffffffffffffffffffffffff82169050919050565b6000620002948262000267565b9050919050565b620002a68162000287565b8114620002b257600080fd5b50565b600081519050620002c6816200029b565b92915050565b600080600060608486031215620002e857620002e7620000de565b5b600084015167ffffffffffffffff811115620003095762000308620000e3565b5b620003178682870162000234565b93505060206200032a86828701620002b5565b92505060406200033d86828701620002b5565b9150509250925092565b600081519050919050565b7f4e487b7100000000000000000000000000000000000000000000000000000000600052602260045260246000fd5b600060028204905060018216806200039a57607f821691505b602082108103620003b057620003af62000352565b5b50919050565b60008190508160005260206000209050919050565b60006020601f8301049050919050565b600082821b905092915050565b6000600883026200041a7fffffffffffffffffffffffffffffffffffffffffffffffffffffffffffffffff82620003db565b620004268683620003db565b95508019841693508086168417925050509392505050565b6000819050919050565b6000819050919050565b6000620004736200046d62000467846200043e565b62000448565b6200043e565b9050919050565b6000819050919050565b6200048f8362000452565b620004a76200049e826200047a565b848454620003e8565b825550505050565b600090565b620004be620004af565b620004cb81848462000484565b505050565b5b81811015620004f357620004e7600082620004b4565b600181019050620004d1565b5050565b601f82111562000542576200050c81620003b6565b6200051784620003cb565b8101602085101562000527578190505b6200053f6200053685620003cb565b830182620004d0565b50505b505050565b600082821c905092915050565b6000620005676000198460080262000547565b1980831691505092915050565b600062000582838362000554565b9150826002028217905092915050565b6200059d8262000347565b67ffffffffffffffff811115620005b957620005b862000103565b5b620005c5825462000381565b620005d2828285620004f7565b600060209050601f8311600181146200060a5760008415620005f5578287015190505b62000601858262000574565b86555062000671565b601f1984166200061a86620003b6565b60005b8281101562000644578489015182556001820191506020850194506020810190506200061d565b8683101562000664578489015162000660601f89168262000554565b8355505b6001600288020188555050505b505050505050565b610bb480620006896000396000f3fe6080604052600436106100595760003560e01c806306fdde031461012c5780632e1a7d4d1461015757806338af3eed14610180578063681024c4146101ab5780638da5cb5b146101c2578063a1db9782146101ed57610127565b3661012757600160009054906101000a900473ffffffffffffffffffffffffffffffffffffffff1673ffffffffffffffffffffffffffffffffffffffff163373ffffffffffffffffffffffffffffffffffffffff16146100ee576040517f08c379a00000000000000000000000000000000000000000000000000000000081526004016100e590610724565b60405180910390fd5b7fa8142743f8f70a4c26f3691cf4ed59718381fb2f18070ec52be1f1022d8555573460405161011d919061075d565b60405180910390a1005b600080fd5b34801561013857600080fd5b50610141610216565b60405161014e91906107f7565b60405180910390f35b34801561016357600080fd5b5061017e6004803603810190610179919061084a565b6102a4565b005b34801561018c57600080fd5b506101956103fa565b6040516101a291906108b8565b60405180910390f35b3480156101b757600080fd5b506101c0610420565b005b3480156101ce57600080fd5b506101d761048b565b6040516101e491906108b8565b60405180910390f35b3480156101f957600080fd5b50610214600480360381019061020f91906108ff565b6104b1565b005b600080546102239061096e565b80601f016020809104026020016040519081016040528092919081815260200182805461024f9061096e565b801561029c5780601f106102715761010080835404028352916020019161029c565b820191906000526020600020905b81548152906001019060200180831161027f57829003601f168201915b505050505081565b600160009054906101000a900473ffffffffffffffffffffffffffffffffffffffff1673ffffffffffffffffffffffffffffffffffffffff163373ffffffffffffffffffffffffffffffffffffffff1614610334576040517f08c379a000000000000000000000000000000000000000000000000000000000815260040161032b906109eb565b60405180910390fd5b80471015610377576040517f08c379a000000000000000000000000000000000000000000000000000000000815260040161036e90610a57565b60405180910390fd5b3373ffffffffffffffffffffffffffffffffffffffff166108fc829081150290604051600060405180830381858888f193505050501580156103bd573d6000803e3d6000fd5b507fb244b9a17ad633c6e83b7983ee04320484956a68ddbe96a0b70dfca1cf19d72333826040516103ef929190610a77565b60405180910390a150565b600260009054906101000a900473ffffffffffffffffffffffffffffffffffffffff1681565b600260009054906101000a900473ffffffffffffffffffffffffffffffffffffffff1673ffffffffffffffffffffffffffffffffffffffff166108fc479081150290604051600060405180830381858888f19350505050158015610488573d6000803e3d6000fd5b50565b600160009054906101000a900473ffffffffffffffffffffffffffffffffffffffff1681565b600160009054906101000a900473ffffffffffffffffffffffffffffffffffffffff1673ffffffffffffffffffffffffffffffffffffffff163373ffffffffffffffffffffffffffffffffffffffff1614610541576040517f08c379a0000000000000000000000000000000000000000000000000000000008152600401610538906109eb565b60405180910390fd5b600082905060008173ffffffffffffffffffffffffffffffffffffffff166370a08231306040518263ffffffff1660e01b815260040161058191906108b8565b602060405180830381865afa15801561059e573d6000803e3d6000fd5b505050506040513d601f19601f820116820180604052508101906105c29190610ab5565b905082811015610607576040517f08c379a00000000000000000000000000000000000000000000000000000000081526004016105fe90610a57565b60405180910390fd5b8173ffffffffffffffffffffffffffffffffffffffff1663a9059cbb33856040518363ffffffff1660e01b8152600401610642929190610a77565b6020604051808303816000875af1158015610661573d6000803e3d6000fd5b505050506040513d601f19601f820116820180604052508101906106859190610b1a565b507fa14466d832b5a1ff01be72c58e51196498a8e10751ab9c227fe73c4730dedc418433856040516106b993929190610b47565b60405180910390a150505050565b600082825260208201905092915050565b7f4e6f74204f776e65720000000000000000000000000000000000000000000000600082015250565b600061070e6009836106c7565b9150610719826106d8565b602082019050919050565b6000602082019050818103600083015261073d81610701565b9050919050565b6000819050919050565b61075781610744565b82525050565b6000602082019050610772600083018461074e565b92915050565b600081519050919050565b60005b838110156107a1578082015181840152602081019050610786565b60008484015250505050565b6000601f19601f8301169050919050565b60006107c982610778565b6107d381856106c7565b93506107e3818560208601610783565b6107ec816107ad565b840191505092915050565b6000602082019050818103600083015261081181846107be565b905092915050565b600080fd5b61082781610744565b811461083257600080fd5b50565b6000813590506108448161081e565b92915050565b6000602082840312156108605761085f610819565b5b600061086e84828501610835565b91505092915050565b600073ffffffffffffffffffffffffffffffffffffffff82169050919050565b60006108a282610877565b9050919050565b6108b281610897565b82525050565b60006020820190506108cd60008301846108a9565b92915050565b6108dc81610897565b81146108e757600080fd5b50565b6000813590506108f9816108d3565b92915050565b6000806040838503121561091657610915610819565b5b6000610924858286016108ea565b925050602061093585828601610835565b9150509250929050565b7f4e487b7100000000000000000000000000000000000000000000000000000000600052602260045260246000fd5b6000600282049050600182168061098657607f821691505b6020821081036109995761099861093f565b5b50919050565b7f596f75277265206e6f7420746865206f776e6572210000000000000000000000600082015250565b60006109d56015836106c7565b91506109e08261099f565b602082019050919050565b60006020820190508181036000830152610a04816109c8565b9050919050565b7f4e6f7420456e6f756768742042616c616e636520210000000000000000000000600082015250565b6000610a416015836106c7565b9150610a4c82610a0b565b602082019050919050565b60006020820190508181036000830152610a7081610a34565b9050919050565b6000604082019050610a8c60008301856108a9565b610a99602083018461074e565b9392505050565b600081519050610aaf8161081e565b92915050565b600060208284031215610acb57610aca610819565b5b6000610ad984828501610aa0565b91505092915050565b60008115159050919050565b610af781610ae2565b8114610b0257600080fd5b50565b600081519050610b1481610aee565b92915050565b600060208284031215610b3057610b2f610819565b5b6000610b3e84828501610b05565b91505092915050565b6000606082019050610b5c60008301866108a9565b610b6960208301856108a9565b610b76604083018461074e565b94935050505056fea2646970667358221220ac64614171ead62033036bd901aacee34f61bad1a76e8aaee069c6b61d403e4d64736f6c63430008110033",
  "immutableReferences": {},
  "source": "// SPDX-License-Identifier: UNLICENSED\r\npragma solidity ^0.8.17;\r\nimport \"@openzeppelin/contracts/token/ERC20/extensions/IERC20Metadata.sol\";\r\n\r\ncontract Locker {\r\n    string public name;\r\n    address public owner;\r\n    address public beneficiary;\r\n\r\n    constructor(\r\n        string memory _name,\r\n        address _owner,\r\n        address _beneficiary\r\n    ) {\r\n        name = _name;\r\n        owner = _owner;\r\n        beneficiary = _beneficiary;\r\n    }\r\n\r\n    // Modifier to check that the caller is the owner of the contract\r\n    modifier isOwner() {\r\n        require(msg.sender == owner, \"You're not the owner!\");\r\n        _;\r\n    }\r\n\r\n    event WithdrewERC20(address token, address by, uint256 amount);\r\n    event Withdrew(address by, uint256 amount);\r\n    event Received(uint256 amount);\r\n\r\n    // ------------------------ Owner Functions ------------------------\r\n    function withdrawERC20(address _tokenAddress, uint256 _amount)\r\n        external\r\n        isOwner\r\n    {\r\n        IERC20Metadata token = IERC20Metadata(_tokenAddress);\r\n        uint256 balance = token.balanceOf(address(this));\r\n        require(balance >= _amount, \"Not Enought Balance !\");\r\n        token.transfer(msg.sender, _amount);\r\n        emit WithdrewERC20(_tokenAddress, msg.sender, _amount);\r\n    }\r\n\r\n    function withdraw(uint256 _amount) external isOwner {\r\n        require(address(this).balance >= _amount, \"Not Enought Balance !\");\r\n        payable(msg.sender).transfer(_amount);\r\n        emit Withdrew(msg.sender, _amount);\r\n    }\r\n\r\n    // ------------------------ Beneficiary Automated Function ------------------------\r\n    function transferFundsToBeneficiary() external {\r\n        payable(beneficiary).transfer(address(this).balance);\r\n    }\r\n\r\n    receive() external payable {\r\n        // check if sender is owner of the contract\r\n        require(msg.sender == owner, \"Not Owner\");\r\n        emit Received(msg.value);\r\n    }\r\n}\r\n",
  "sourcePath": "C:\\Users\\Rasula\\Documents\\GitHub\\crypto-inheritor-react-frontend\\contracts\\Locker.sol",
  "compiler": {
    "name": "solc",
    "version": "0.8.17+commit.8df45f5f.Emscripten.clang"
  },
  "schemaVersion": "3.4.11",
  "updatedAt": "2023-04-02T08:58:24.301Z",
  "devdoc": {
    "kind": "dev",
    "methods": {},
    "version": 1
  },
  "userdoc": {
    "kind": "user",
    "methods": {},
    "version": 1
  }
}