{
  "contractName": "Locker",
  "abi": [
    {
      "inputs": [
        {
          "internalType": "string",
          "name": "_name",
          "type": "string"
        },
        {
          "internalType": "address",
          "name": "_owner",
          "type": "address"
        },
        {
          "internalType": "address",
          "name": "_beneficiary",
          "type": "address"
        },
        {
          "internalType": "address",
          "name": "_lockerFactoryAddress",
          "type": "address"
        }
      ],
      "stateMutability": "nonpayable",
      "type": "constructor"
    },
    {
      "anonymous": false,
      "inputs": [
        {
          "indexed": false,
          "internalType": "uint256",
          "name": "amount",
          "type": "uint256"
        }
      ],
      "name": "Received",
      "type": "event"
    },
    {
      "anonymous": false,
      "inputs": [
        {
          "indexed": false,
          "internalType": "address",
          "name": "by",
          "type": "address"
        },
        {
          "indexed": false,
          "internalType": "uint256",
          "name": "amount",
          "type": "uint256"
        }
      ],
      "name": "Withdrew",
      "type": "event"
    },
    {
      "anonymous": false,
      "inputs": [
        {
          "indexed": false,
          "internalType": "address",
          "name": "token",
          "type": "address"
        },
        {
          "indexed": false,
          "internalType": "address",
          "name": "by",
          "type": "address"
        },
        {
          "indexed": false,
          "internalType": "uint256",
          "name": "amount",
          "type": "uint256"
        }
      ],
      "name": "WithdrewERC20",
      "type": "event"
    },
    {
      "inputs": [],
      "name": "name",
      "outputs": [
        {
          "internalType": "string",
          "name": "",
          "type": "string"
        }
      ],
      "stateMutability": "view",
      "type": "function"
    },
    {
      "stateMutability": "payable",
      "type": "receive"
    },
    {
      "inputs": [
        {
          "internalType": "address",
          "name": "_tokenAddress",
          "type": "address"
        },
        {
          "internalType": "uint256",
          "name": "_amount",
          "type": "uint256"
        }
      ],
      "name": "withdrawERC20",
      "outputs": [],
      "stateMutability": "nonpayable",
      "type": "function"
    },
    {
      "inputs": [
        {
          "internalType": "uint256",
          "name": "_amount",
          "type": "uint256"
        }
      ],
      "name": "withdraw",
      "outputs": [],
      "stateMutability": "nonpayable",
      "type": "function"
    },
    {
      "inputs": [],
      "name": "getOwnerAddress",
      "outputs": [
        {
          "internalType": "address",
          "name": "",
          "type": "address"
        }
      ],
      "stateMutability": "view",
      "type": "function"
    },
    {
      "inputs": [],
      "name": "getBeneficiaryAddress",
      "outputs": [
        {
          "internalType": "address",
          "name": "",
          "type": "address"
        }
      ],
      "stateMutability": "view",
      "type": "function"
    },
    {
      "inputs": [],
      "name": "transferFundsToBeneficiary",
      "outputs": [],
      "stateMutability": "nonpayable",
      "type": "function"
    }
  ],
  "bytecode": "0x60806040523480156200001157600080fd5b506040516200196d3803806200196d83398181016040528101906200003791906200030e565b8360009081620000489190620005ea565b5082600160006101000a81548173ffffffffffffffffffffffffffffffffffffffff021916908373ffffffffffffffffffffffffffffffffffffffff16021790555081600260006101000a81548173ffffffffffffffffffffffffffffffffffffffff021916908373ffffffffffffffffffffffffffffffffffffffff16021790555080600360006101000a81548173ffffffffffffffffffffffffffffffffffffffff021916908373ffffffffffffffffffffffffffffffffffffffff16021790555050505050620006d1565b6000604051905090565b600080fd5b600080fd5b600080fd5b600080fd5b6000601f19601f8301169050919050565b7f4e487b7100000000000000000000000000000000000000000000000000000000600052604160045260246000fd5b6200017f8262000134565b810181811067ffffffffffffffff82111715620001a157620001a062000145565b5b80604052505050565b6000620001b662000116565b9050620001c4828262000174565b919050565b600067ffffffffffffffff821115620001e757620001e662000145565b5b620001f28262000134565b9050602081019050919050565b60005b838110156200021f57808201518184015260208101905062000202565b60008484015250505050565b6000620002426200023c84620001c9565b620001aa565b9050828152602081018484840111156200026157620002606200012f565b5b6200026e848285620001ff565b509392505050565b600082601f8301126200028e576200028d6200012a565b5b8151620002a08482602086016200022b565b91505092915050565b600073ffffffffffffffffffffffffffffffffffffffff82169050919050565b6000620002d682620002a9565b9050919050565b620002e881620002c9565b8114620002f457600080fd5b50565b6000815190506200030881620002dd565b92915050565b600080600080608085870312156200032b576200032a62000120565b5b600085015167ffffffffffffffff8111156200034c576200034b62000125565b5b6200035a8782880162000276565b94505060206200036d87828801620002f7565b93505060406200038087828801620002f7565b92505060606200039387828801620002f7565b91505092959194509250565b600081519050919050565b7f4e487b7100000000000000000000000000000000000000000000000000000000600052602260045260246000fd5b60006002820490506001821680620003f257607f821691505b602082108103620004085762000407620003aa565b5b50919050565b60008190508160005260206000209050919050565b60006020601f8301049050919050565b600082821b905092915050565b600060088302620004727fffffffffffffffffffffffffffffffffffffffffffffffffffffffffffffffff8262000433565b6200047e868362000433565b95508019841693508086168417925050509392505050565b6000819050919050565b6000819050919050565b6000620004cb620004c5620004bf8462000496565b620004a0565b62000496565b9050919050565b6000819050919050565b620004e783620004aa565b620004ff620004f682620004d2565b84845462000440565b825550505050565b600090565b6200051662000507565b62000523818484620004dc565b505050565b5b818110156200054b576200053f6000826200050c565b60018101905062000529565b5050565b601f8211156200059a5762000564816200040e565b6200056f8462000423565b810160208510156200057f578190505b620005976200058e8562000423565b83018262000528565b50505b505050565b600082821c905092915050565b6000620005bf600019846008026200059f565b1980831691505092915050565b6000620005da8383620005ac565b9150826002028217905092915050565b620005f5826200039f565b67ffffffffffffffff81111562000611576200061062000145565b5b6200061d8254620003d9565b6200062a8282856200054f565b600060209050601f8311600181146200066257600084156200064d578287015190505b620006598582620005cc565b865550620006c9565b601f19841662000672866200040e565b60005b828110156200069c5784890151825560018201915060208501945060208101905062000675565b86831015620006bc5784890151620006b8601f891682620005ac565b8355505b6001600288020188555050505b505050505050565b61128c80620006e16000396000f3fe6080604052600436106100595760003560e01c806306fdde031461012c5780630c4f65bd146101575780632e1a7d4d14610182578063681024c4146101ab578063a1db9782146101c2578063d1eff895146101eb57610127565b3661012757600160009054906101000a900473ffffffffffffffffffffffffffffffffffffffff1673ffffffffffffffffffffffffffffffffffffffff163373ffffffffffffffffffffffffffffffffffffffff16146100ee576040517f08c379a00000000000000000000000000000000000000000000000000000000081526004016100e590610ba2565b60405180910390fd5b7fa8142743f8f70a4c26f3691cf4ed59718381fb2f18070ec52be1f1022d8555573460405161011d9190610bdb565b60405180910390a1005b600080fd5b34801561013857600080fd5b50610141610216565b60405161014e9190610c75565b60405180910390f35b34801561016357600080fd5b5061016c6102a4565b6040516101799190610cd8565b60405180910390f35b34801561018e57600080fd5b506101a960048036038101906101a49190610d24565b61035e565b005b3480156101b757600080fd5b506101c06104b4565b005b3480156101ce57600080fd5b506101e960048036038101906101e49190610d7d565b6105af565b005b3480156101f757600080fd5b50610200610771565b60405161020d9190610cd8565b60405180910390f35b6000805461022390610dec565b80601f016020809104026020016040519081016040528092919081815260200182805461024f90610dec565b801561029c5780601f106102715761010080835404028352916020019161029c565b820191906000526020600020905b81548152906001019060200180831161027f57829003601f168201915b505050505081565b6000600160009054906101000a900473ffffffffffffffffffffffffffffffffffffffff1673ffffffffffffffffffffffffffffffffffffffff163373ffffffffffffffffffffffffffffffffffffffff1614610336576040517f08c379a000000000000000000000000000000000000000000000000000000000815260040161032d90610e69565b60405180910390fd5b600160009054906101000a900473ffffffffffffffffffffffffffffffffffffffff16905090565b600160009054906101000a900473ffffffffffffffffffffffffffffffffffffffff1673ffffffffffffffffffffffffffffffffffffffff163373ffffffffffffffffffffffffffffffffffffffff16146103ee576040517f08c379a00000000000000000000000000000000000000000000000000000000081526004016103e590610e69565b60405180910390fd5b80471015610431576040517f08c379a000000000000000000000000000000000000000000000000000000000815260040161042890610ed5565b60405180910390fd5b3373ffffffffffffffffffffffffffffffffffffffff166108fc829081150290604051600060405180830381858888f19350505050158015610477573d6000803e3d6000fd5b507fb244b9a17ad633c6e83b7983ee04320484956a68ddbe96a0b70dfca1cf19d72333826040516104a9929190610ef5565b60405180910390a150565b600360009054906101000a900473ffffffffffffffffffffffffffffffffffffffff1673ffffffffffffffffffffffffffffffffffffffff163373ffffffffffffffffffffffffffffffffffffffff1614610544576040517f08c379a000000000000000000000000000000000000000000000000000000000815260040161053b90610f6a565b60405180910390fd5b600260009054906101000a900473ffffffffffffffffffffffffffffffffffffffff1673ffffffffffffffffffffffffffffffffffffffff166108fc479081150290604051600060405180830381858888f193505050501580156105ac573d6000803e3d6000fd5b50565b600160009054906101000a900473ffffffffffffffffffffffffffffffffffffffff1673ffffffffffffffffffffffffffffffffffffffff163373ffffffffffffffffffffffffffffffffffffffff161461063f576040517f08c379a000000000000000000000000000000000000000000000000000000000815260040161063690610e69565b60405180910390fd5b600082905060008173ffffffffffffffffffffffffffffffffffffffff166370a08231306040518263ffffffff1660e01b815260040161067f9190610cd8565b602060405180830381865afa15801561069c573d6000803e3d6000fd5b505050506040513d601f19601f820116820180604052508101906106c09190610f9f565b905082811015610705576040517f08c379a00000000000000000000000000000000000000000000000000000000081526004016106fc90610ed5565b60405180910390fd5b61073033848473ffffffffffffffffffffffffffffffffffffffff1661082b9092919063ffffffff16565b7fa14466d832b5a1ff01be72c58e51196498a8e10751ab9c227fe73c4730dedc4184338560405161076393929190610fcc565b60405180910390a150505050565b6000600160009054906101000a900473ffffffffffffffffffffffffffffffffffffffff1673ffffffffffffffffffffffffffffffffffffffff163373ffffffffffffffffffffffffffffffffffffffff1614610803576040517f08c379a00000000000000000000000000000000000000000000000000000000081526004016107fa90610e69565b60405180910390fd5b600260009054906101000a900473ffffffffffffffffffffffffffffffffffffffff16905090565b6108ac8363a9059cbb60e01b848460405160240161084a929190610ef5565b604051602081830303815290604052907bffffffffffffffffffffffffffffffffffffffffffffffffffffffff19166020820180517bffffffffffffffffffffffffffffffffffffffffffffffffffffffff83818316178352505050506108b1565b505050565b6000610913826040518060400160405280602081526020017f5361666545524332303a206c6f772d6c6576656c2063616c6c206661696c65648152508573ffffffffffffffffffffffffffffffffffffffff166109789092919063ffffffff16565b90506000815111156109735780806020019051810190610933919061103b565b610972576040517f08c379a0000000000000000000000000000000000000000000000000000000008152600401610969906110da565b60405180910390fd5b5b505050565b60606109878484600085610990565b90509392505050565b6060824710156109d5576040517f08c379a00000000000000000000000000000000000000000000000000000000081526004016109cc9061116c565b60405180910390fd5b6000808673ffffffffffffffffffffffffffffffffffffffff1685876040516109fe91906111d3565b60006040518083038185875af1925050503d8060008114610a3b576040519150601f19603f3d011682016040523d82523d6000602084013e610a40565b606091505b5091509150610a5187838387610a5d565b92505050949350505050565b60608315610abf576000835103610ab757610a7785610ad2565b610ab6576040517f08c379a0000000000000000000000000000000000000000000000000000000008152600401610aad90611236565b60405180910390fd5b5b829050610aca565b610ac98383610af5565b5b949350505050565b6000808273ffffffffffffffffffffffffffffffffffffffff163b119050919050565b600082511115610b085781518083602001fd5b806040517f08c379a0000000000000000000000000000000000000000000000000000000008152600401610b3c9190610c75565b60405180910390fd5b600082825260208201905092915050565b7f4e6f74204f776e65720000000000000000000000000000000000000000000000600082015250565b6000610b8c600983610b45565b9150610b9782610b56565b602082019050919050565b60006020820190508181036000830152610bbb81610b7f565b9050919050565b6000819050919050565b610bd581610bc2565b82525050565b6000602082019050610bf06000830184610bcc565b92915050565b600081519050919050565b60005b83811015610c1f578082015181840152602081019050610c04565b60008484015250505050565b6000601f19601f8301169050919050565b6000610c4782610bf6565b610c518185610b45565b9350610c61818560208601610c01565b610c6a81610c2b565b840191505092915050565b60006020820190508181036000830152610c8f8184610c3c565b905092915050565b600073ffffffffffffffffffffffffffffffffffffffff82169050919050565b6000610cc282610c97565b9050919050565b610cd281610cb7565b82525050565b6000602082019050610ced6000830184610cc9565b92915050565b600080fd5b610d0181610bc2565b8114610d0c57600080fd5b50565b600081359050610d1e81610cf8565b92915050565b600060208284031215610d3a57610d39610cf3565b5b6000610d4884828501610d0f565b91505092915050565b610d5a81610cb7565b8114610d6557600080fd5b50565b600081359050610d7781610d51565b92915050565b60008060408385031215610d9457610d93610cf3565b5b6000610da285828601610d68565b9250506020610db385828601610d0f565b9150509250929050565b7f4e487b7100000000000000000000000000000000000000000000000000000000600052602260045260246000fd5b60006002820490506001821680610e0457607f821691505b602082108103610e1757610e16610dbd565b5b50919050565b7f596f75277265206e6f7420746865206f776e6572210000000000000000000000600082015250565b6000610e53601583610b45565b9150610e5e82610e1d565b602082019050919050565b60006020820190508181036000830152610e8281610e46565b9050919050565b7f4e6f7420456e6f756768742042616c616e636520210000000000000000000000600082015250565b6000610ebf601583610b45565b9150610eca82610e89565b602082019050919050565b60006020820190508181036000830152610eee81610eb2565b9050919050565b6000604082019050610f0a6000830185610cc9565b610f176020830184610bcc565b9392505050565b7f496e76616c69642063616c6c0000000000000000000000000000000000000000600082015250565b6000610f54600c83610b45565b9150610f5f82610f1e565b602082019050919050565b60006020820190508181036000830152610f8381610f47565b9050919050565b600081519050610f9981610cf8565b92915050565b600060208284031215610fb557610fb4610cf3565b5b6000610fc384828501610f8a565b91505092915050565b6000606082019050610fe16000830186610cc9565b610fee6020830185610cc9565b610ffb6040830184610bcc565b949350505050565b60008115159050919050565b61101881611003565b811461102357600080fd5b50565b6000815190506110358161100f565b92915050565b60006020828403121561105157611050610cf3565b5b600061105f84828501611026565b91505092915050565b7f5361666545524332303a204552433230206f7065726174696f6e20646964206e60008201527f6f74207375636365656400000000000000000000000000000000000000000000602082015250565b60006110c4602a83610b45565b91506110cf82611068565b604082019050919050565b600060208201905081810360008301526110f3816110b7565b9050919050565b7f416464726573733a20696e73756666696369656e742062616c616e636520666f60008201527f722063616c6c0000000000000000000000000000000000000000000000000000602082015250565b6000611156602683610b45565b9150611161826110fa565b604082019050919050565b6000602082019050818103600083015261118581611149565b9050919050565b600081519050919050565b600081905092915050565b60006111ad8261118c565b6111b78185611197565b93506111c7818560208601610c01565b80840191505092915050565b60006111df82846111a2565b915081905092915050565b7f416464726573733a2063616c6c20746f206e6f6e2d636f6e7472616374000000600082015250565b6000611220601d83610b45565b915061122b826111ea565b602082019050919050565b6000602082019050818103600083015261124f81611213565b905091905056fea2646970667358221220863234ae83e2ab71bff4550e53f77b7583165a62bfd4239765075f21e8c4619164736f6c63430008110033",
  "immutableReferences": {},
  "source": "// SPDX-License-Identifier: UNLICENSED\r\npragma solidity ^0.8.17;\r\nimport \"@openzeppelin/contracts/token/ERC20/extensions/IERC20Metadata.sol\";\r\nimport \"@openzeppelin/contracts/token/ERC20/utils/SafeERC20.sol\";\r\n\r\ncontract Locker {\r\n    using SafeERC20 for IERC20;\r\n\r\n    string public name;\r\n    address private owner;\r\n    address private beneficiary;\r\n    address private lockerFactoryAddress;\r\n\r\n    constructor(\r\n        string memory _name,\r\n        address _owner,\r\n        address _beneficiary,\r\n        address _lockerFactoryAddress\r\n    ) {\r\n        name = _name;\r\n        owner = _owner;\r\n        beneficiary = _beneficiary;\r\n        lockerFactoryAddress = _lockerFactoryAddress;\r\n    }\r\n\r\n    // Modifier to check that the caller is the owner of the contract\r\n    modifier isOwner() {\r\n        require(msg.sender == owner, \"You're not the owner!\");\r\n        _;\r\n    }\r\n\r\n    modifier isLockerFactory() {\r\n        require(msg.sender == lockerFactoryAddress, \"Invalid call\");\r\n        _;\r\n    }\r\n\r\n    event WithdrewERC20(address token, address by, uint256 amount);\r\n    event Withdrew(address by, uint256 amount);\r\n    event Received(uint256 amount);\r\n\r\n    // ------------------------ Owner Functions ------------------------\r\n    function withdrawERC20(address _tokenAddress, uint256 _amount) external isOwner {\r\n        IERC20 erc20Token = IERC20(_tokenAddress);\r\n        uint256 balance = erc20Token.balanceOf(address(this));\r\n        require(balance >= _amount, \"Not Enought Balance !\");\r\n        erc20Token.safeTransfer(msg.sender, _amount);\r\n        emit WithdrewERC20(_tokenAddress, msg.sender, _amount);\r\n    }\r\n\r\n    function withdraw(uint256 _amount) external isOwner {\r\n        require(address(this).balance >= _amount, \"Not Enought Balance !\");\r\n        payable(msg.sender).transfer(_amount);\r\n        emit Withdrew(msg.sender, _amount);\r\n    }\r\n\r\n    function getOwnerAddress() public view isOwner returns (address) {\r\n        return owner;\r\n    }\r\n\r\n    function getBeneficiaryAddress() public view isOwner returns (address) {\r\n        return beneficiary;\r\n    }\r\n\r\n    // ------------------------ Beneficiary Automated Function ------------------------\r\n    function transferFundsToBeneficiary() external isLockerFactory {\r\n        payable(beneficiary).transfer(address(this).balance);\r\n    }\r\n\r\n    receive() external payable {\r\n        // check if sender is owner of the contract\r\n        require(msg.sender == owner, \"Not Owner\");\r\n        emit Received(msg.value);\r\n    }\r\n}\r\n",
  "sourcePath": "C:\\Users\\Rasula\\Desktop\\crypto inheritor\\crypto-inheritor-react-frontend\\contracts\\Locker.sol",
  "compiler": {
    "name": "solc",
    "version": "0.8.17+commit.8df45f5f.Emscripten.clang"
  },
  "schemaVersion": "3.4.11",
  "updatedAt": "2023-05-29T02:03:31.844Z",
  "devdoc": {
    "kind": "dev",
    "methods": {},
    "version": 1
  },
  "userdoc": {
    "kind": "user",
    "methods": {},
    "version": 1
  }
}