{
  "contractName": "LockerFactory",
  "abi": [
    {
      "inputs": [
        {
          "internalType": "address",
          "name": "owner",
          "type": "address"
        },
        {
          "internalType": "string",
          "name": "_username",
          "type": "string"
        },
        {
          "internalType": "string",
          "name": "_nationalId",
          "type": "string"
        }
      ],
      "stateMutability": "nonpayable",
      "type": "constructor"
    },
    {
      "anonymous": false,
      "inputs": [
        {
          "indexed": false,
          "internalType": "string",
          "name": "description",
          "type": "string"
        }
      ],
      "name": "LogNewProvableQuery",
      "type": "event"
    },
    {
      "anonymous": false,
      "inputs": [
        {
          "indexed": false,
          "internalType": "bytes32",
          "name": "id",
          "type": "bytes32"
        },
        {
          "indexed": false,
          "internalType": "string",
          "name": "data",
          "type": "string"
        }
      ],
      "name": "LogReceivedData",
      "type": "event"
    },
    {
      "anonymous": false,
      "inputs": [
        {
          "indexed": false,
          "internalType": "contract Locker",
          "name": "locker",
          "type": "address"
        },
        {
          "indexed": false,
          "internalType": "address",
          "name": "owner",
          "type": "address"
        }
      ],
      "name": "NewLocker",
      "type": "event"
    },
    {
      "inputs": [],
      "name": "counter",
      "outputs": [
        {
          "internalType": "uint256",
          "name": "",
          "type": "uint256"
        }
      ],
      "stateMutability": "view",
      "type": "function"
    },
    {
      "inputs": [
        {
          "internalType": "uint256",
          "name": "",
          "type": "uint256"
        }
      ],
      "name": "lockers",
      "outputs": [
        {
          "internalType": "contract Locker",
          "name": "",
          "type": "address"
        }
      ],
      "stateMutability": "view",
      "type": "function"
    },
    {
      "inputs": [],
      "name": "triggerTime",
      "outputs": [
        {
          "internalType": "uint256",
          "name": "",
          "type": "uint256"
        }
      ],
      "stateMutability": "view",
      "type": "function"
    },
    {
      "stateMutability": "payable",
      "type": "receive"
    },
    {
      "inputs": [
        {
          "internalType": "uint256",
          "name": "_index",
          "type": "uint256"
        }
      ],
      "name": "getLockerByIndex",
      "outputs": [
        {
          "internalType": "contract Locker",
          "name": "",
          "type": "address"
        }
      ],
      "stateMutability": "view",
      "type": "function"
    },
    {
      "inputs": [],
      "name": "getNumberOfLockers",
      "outputs": [
        {
          "internalType": "uint256",
          "name": "",
          "type": "uint256"
        }
      ],
      "stateMutability": "view",
      "type": "function"
    },
    {
      "inputs": [
        {
          "internalType": "string",
          "name": "_name",
          "type": "string"
        },
        {
          "internalType": "address",
          "name": "_beneficiary",
          "type": "address"
        }
      ],
      "name": "createNewLocker",
      "outputs": [],
      "stateMutability": "nonpayable",
      "type": "function"
    },
    {
      "inputs": [],
      "name": "getUsername",
      "outputs": [
        {
          "internalType": "string",
          "name": "",
          "type": "string"
        }
      ],
      "stateMutability": "view",
      "type": "function"
    },
    {
      "inputs": [],
      "name": "getNationalId",
      "outputs": [
        {
          "internalType": "string",
          "name": "",
          "type": "string"
        }
      ],
      "stateMutability": "view",
      "type": "function"
    },
    {
      "inputs": [],
      "name": "getIsAlive",
      "outputs": [
        {
          "internalType": "bool",
          "name": "",
          "type": "bool"
        }
      ],
      "stateMutability": "view",
      "type": "function"
    },
    {
      "inputs": [],
      "name": "getOracleIsRunning",
      "outputs": [
        {
          "internalType": "bool",
          "name": "",
          "type": "bool"
        }
      ],
      "stateMutability": "view",
      "type": "function"
    },
    {
      "inputs": [],
      "name": "getFundsTransferred",
      "outputs": [
        {
          "internalType": "bool",
          "name": "",
          "type": "bool"
        }
      ],
      "stateMutability": "view",
      "type": "function"
    },
    {
      "inputs": [
        {
          "internalType": "bytes32",
          "name": "myid",
          "type": "bytes32"
        },
        {
          "internalType": "string",
          "name": "result",
          "type": "string"
        }
      ],
      "name": "__callback",
      "outputs": [],
      "stateMutability": "nonpayable",
      "type": "function"
    },
    {
      "inputs": [],
      "name": "getUser",
      "outputs": [],
      "stateMutability": "payable",
      "type": "function"
    },
    {
      "inputs": [],
      "name": "manualOverride",
      "outputs": [],
      "stateMutability": "payable",
      "type": "function"
    }
  ],
  "bytecode": "0x60806040523480156200001157600080fd5b50604051620051e4380380620051e4833981810160405281019062000037919062000328565b82600660036101000a81548173ffffffffffffffffffffffffffffffffffffffff021916908373ffffffffffffffffffffffffffffffffffffffff1602179055506001600660006101000a81548160ff0219169083151502179055506000600660016101000a81548160ff0219169083151502179055508160079081620000bf91906200060d565b508060089081620000d191906200060d565b50736f485c8bf6fc43ea212e93bbf8ce046c7f1cb475600160006101000a81548173ffffffffffffffffffffffffffffffffffffffff021916908373ffffffffffffffffffffffffffffffffffffffff160217905550505050620006f4565b6000604051905090565b600080fd5b600080fd5b600073ffffffffffffffffffffffffffffffffffffffff82169050919050565b6000620001718262000144565b9050919050565b620001838162000164565b81146200018f57600080fd5b50565b600081519050620001a38162000178565b92915050565b600080fd5b600080fd5b6000601f19601f8301169050919050565b7f4e487b7100000000000000000000000000000000000000000000000000000000600052604160045260246000fd5b620001fe82620001b3565b810181811067ffffffffffffffff8211171562000220576200021f620001c4565b5b80604052505050565b60006200023562000130565b9050620002438282620001f3565b919050565b600067ffffffffffffffff821115620002665762000265620001c4565b5b6200027182620001b3565b9050602081019050919050565b60005b838110156200029e57808201518184015260208101905062000281565b60008484015250505050565b6000620002c1620002bb8462000248565b62000229565b905082815260208101848484011115620002e057620002df620001ae565b5b620002ed8482856200027e565b509392505050565b600082601f8301126200030d576200030c620001a9565b5b81516200031f848260208601620002aa565b91505092915050565b6000806000606084860312156200034457620003436200013a565b5b6000620003548682870162000192565b935050602084015167ffffffffffffffff8111156200037857620003776200013f565b5b6200038686828701620002f5565b925050604084015167ffffffffffffffff811115620003aa57620003a96200013f565b5b620003b886828701620002f5565b9150509250925092565b600081519050919050565b7f4e487b7100000000000000000000000000000000000000000000000000000000600052602260045260246000fd5b600060028204905060018216806200041557607f821691505b6020821081036200042b576200042a620003cd565b5b50919050565b60008190508160005260206000209050919050565b60006020601f8301049050919050565b600082821b905092915050565b600060088302620004957fffffffffffffffffffffffffffffffffffffffffffffffffffffffffffffffff8262000456565b620004a1868362000456565b95508019841693508086168417925050509392505050565b6000819050919050565b6000819050919050565b6000620004ee620004e8620004e284620004b9565b620004c3565b620004b9565b9050919050565b6000819050919050565b6200050a83620004cd565b620005226200051982620004f5565b84845462000463565b825550505050565b600090565b620005396200052a565b62000546818484620004ff565b505050565b5b818110156200056e57620005626000826200052f565b6001810190506200054c565b5050565b601f821115620005bd57620005878162000431565b620005928462000446565b81016020851015620005a2578190505b620005ba620005b18562000446565b8301826200054b565b50505b505050565b600082821c905092915050565b6000620005e260001984600802620005c2565b1980831691505092915050565b6000620005fd8383620005cf565b9150826002028217905092915050565b6200061882620003c2565b67ffffffffffffffff811115620006345762000633620001c4565b5b620006408254620003fc565b6200064d82828562000572565b600060209050601f83116001811462000685576000841562000670578287015190505b6200067c8582620005ef565b865550620006ec565b601f198416620006958662000431565b60005b82811015620006bf5784890151825560018201915060208501945060208101905062000698565b86831015620006df5784890151620006db601f891682620005cf565b8355505b6001600288020188555050505b505050505050565b614ae080620007046000396000f3fe608060405260043610620000f75760003560e01c8063681f3e6d116200008b5780639ece9eb811620000615780639ece9eb814620002e6578063a36d305b1462000316578063bae6d62b1462000344578063ef69a7bc146200035057620000ff565b8063681f3e6d1462000266578063809aab921462000296578063832880e714620002da57620000ff565b80632942d6d211620000cd5780632942d6d21462000192578063370fb47b14620001c25780634b88268d14620001f257806361bc221a146200023657620000ff565b80630bae11d714620001045780631ca00a1d146200013457806327dc297e146200016457620000ff565b36620000ff57005b600080fd5b3480156200011157600080fd5b506200011c62000380565b6040516200012b9190620021e0565b60405180910390f35b3480156200014157600080fd5b506200014c62000397565b6040516200015b9190620021e0565b60405180910390f35b3480156200017157600080fd5b506200019060048036038101906200018a9190620023ae565b620003ae565b005b3480156200019f57600080fd5b50620001aa62000562565b604051620001b99190620021e0565b60405180910390f35b348015620001cf57600080fd5b50620001da62000579565b604051620001e991906200242f565b60405180910390f35b348015620001ff57600080fd5b506200021e60048036038101906200021891906200247d565b6200057f565b6040516200022d91906200253a565b60405180910390f35b3480156200024357600080fd5b506200024e620005bc565b6040516200025d91906200242f565b60405180910390f35b3480156200027357600080fd5b506200027e620005c2565b6040516200028d9190620025e0565b60405180910390f35b348015620002a357600080fd5b50620002c26004803603810190620002bc91906200247d565b6200065c565b604051620002d191906200253a565b60405180910390f35b620002e46200068f565b005b348015620002f357600080fd5b50620002fe62000831565b6040516200030d9190620025e0565b60405180910390f35b3480156200032357600080fd5b506200034260048036038101906200033c919062002649565b620008cb565b005b6200034e620009bc565b005b3480156200035d57600080fd5b506200036862000b09565b6040516200037791906200242f565b60405180910390f35b6000600660019054906101000a900460ff16905090565b6000600660029054906101000a900460ff16905090565b620003b862000b13565b73ffffffffffffffffffffffffffffffffffffffff163373ffffffffffffffffffffffffffffffffffffffff1614620003f057600080fd5b7f6273151f959616268004b58dbb21e5c851b7b8d04498b4aabee12291d22fc03481604051602001620004249190620026f1565b60405160208183030381529060405280519060200120036200048d576001600660006101000a81548160ff021916908315150217905550600a6000815480929190620004709062002739565b91905055506000600b81905550620004876200068f565b62000523565b6000600a541115620004e1576000600660006101000a81548160ff021916908315150217905550603c42620004c3919062002786565b600b819055506000600a81905550620004db6200068f565b62000522565b6000600660016101000a81548160ff0219169083151502179055506001600660026101000a81548160ff0219169083151502179055506200052162000e0a565b5b5b7f144385391b548c2d638e864261d1788a2e3f52bc799b7e229b1d0b60920bc304828260405162000556929190620027d2565b60405180910390a15050565b6000600660009054906101000a900460ff16905090565b600b5481565b60006009600083815260200190815260200160002060009054906101000a900473ffffffffffffffffffffffffffffffffffffffff169050919050565b600a5481565b606060078054620005d39062002835565b80601f0160208091040260200160405190810160405280929190818152602001828054620006019062002835565b8015620006525780601f10620006265761010080835404028352916020019162000652565b820191906000526020600020905b8154815290600101906020018083116200063457829003601f168201915b5050505050905090565b60096020528060005260406000206000915054906101000a900473ffffffffffffffffffffffffffffffffffffffff1681565b47620006d06040518060400160405280600381526020017f55524c000000000000000000000000000000000000000000000000000000000081525062000ec6565b11156200072f577fc4dc360d0a9c0677a3379ae0a3d81e887f761e65fdf3d7e00859d1bcd3c47389604051620007069062002906565b60405180910390a16000600660016101000a81548160ff0219169083151502179055506200082f565b7fc4dc360d0a9c0677a3379ae0a3d81e887f761e65fdf3d7e00859d1bcd3c473896040516200075e906200299e565b60405180910390a160001515600660019054906101000a900460ff161515036200079e576001600660016101000a81548160ff0219169083151502179055505b60006008604051602001620007b4919062002ada565b604051602081830303815290604052905080604051602001620007d8919062002b26565b60405160208183030381529060405290506200082c603c6040518060400160405280600381526020017f55524c000000000000000000000000000000000000000000000000000000000081525083620011cc565b50505b565b606060088054620008429062002835565b80601f0160208091040260200160405190810160405280929190818152602001828054620008709062002835565b8015620008c15780601f106200089557610100808354040283529160200191620008c1565b820191906000526020600020905b815481529060010190602001808311620008a357829003601f168201915b5050505050905090565b600082338330604051620008df90620021b5565b620008ee949392919062002b61565b604051809103906000f0801580156200090b573d6000803e3d6000fd5b5090508060096000600554815260200190815260200160002060006101000a81548173ffffffffffffffffffffffffffffffffffffffff021916908373ffffffffffffffffffffffffffffffffffffffff16021790555060056000815480929190620009779062002739565b91905055507f69253c7023f628e3a302b63087a3bfc1dfdb256780182f81b9f0df9eff9542b08133604051620009af92919062002bb5565b60405180910390a1505050565b47620009fd6040518060400160405280600381526020017f55524c000000000000000000000000000000000000000000000000000000000081525062000ec6565b111562000a41577fc4dc360d0a9c0677a3379ae0a3d81e887f761e65fdf3d7e00859d1bcd3c4738960405162000a339062002906565b60405180910390a162000b07565b7fc4dc360d0a9c0677a3379ae0a3d81e887f761e65fdf3d7e00859d1bcd3c4738960405162000a70906200299e565b60405180910390a16000600860405160200162000a8e919062002c7e565b60405160208183030381529060405290508060405160200162000ab2919062002b26565b604051602081830303815290604052905062000b046040518060400160405280600381526020017f55524c000000000000000000000000000000000000000000000000000000000081525082620015bc565b50505b565b6000600554905090565b60008073ffffffffffffffffffffffffffffffffffffffff16600160009054906101000a900473ffffffffffffffffffffffffffffffffffffffff1673ffffffffffffffffffffffffffffffffffffffff16148062000b9e5750600062000b9c600160009054906101000a900473ffffffffffffffffffffffffffffffffffffffff16620019ac565b145b1562000bb25762000bb06000620019b7565b505b600160009054906101000a900473ffffffffffffffffffffffffffffffffffffffff1673ffffffffffffffffffffffffffffffffffffffff166338cc48316040518163ffffffff1660e01b81526004016020604051808303816000875af115801562000c22573d6000803e3d6000fd5b505050506040513d601f19601f8201168201806040525081019062000c48919062002cbb565b73ffffffffffffffffffffffffffffffffffffffff1660008054906101000a900473ffffffffffffffffffffffffffffffffffffffff1673ffffffffffffffffffffffffffffffffffffffff161462000d7157600160009054906101000a900473ffffffffffffffffffffffffffffffffffffffff1673ffffffffffffffffffffffffffffffffffffffff166338cc48316040518163ffffffff1660e01b81526004016020604051808303816000875af115801562000d0b573d6000803e3d6000fd5b505050506040513d601f19601f8201168201806040525081019062000d31919062002cbb565b6000806101000a81548173ffffffffffffffffffffffffffffffffffffffff021916908373ffffffffffffffffffffffffffffffffffffffff1602179055505b60008054906101000a900473ffffffffffffffffffffffffffffffffffffffff1673ffffffffffffffffffffffffffffffffffffffff1663c281d19e6040518163ffffffff1660e01b81526004016020604051808303816000875af115801562000ddf573d6000803e3d6000fd5b505050506040513d601f19601f8201168201806040525081019062000e05919062002cbb565b905090565b60005b60055481101562000ec3576009600082815260200190815260200160002060009054906101000a900473ffffffffffffffffffffffffffffffffffffffff1673ffffffffffffffffffffffffffffffffffffffff1663681024c46040518163ffffffff1660e01b8152600401600060405180830381600087803b15801562000e9457600080fd5b505af115801562000ea9573d6000803e3d6000fd5b50505050808062000eba9062002739565b91505062000e0d565b50565b60008073ffffffffffffffffffffffffffffffffffffffff16600160009054906101000a900473ffffffffffffffffffffffffffffffffffffffff1673ffffffffffffffffffffffffffffffffffffffff16148062000f515750600062000f4f600160009054906101000a900473ffffffffffffffffffffffffffffffffffffffff16620019ac565b145b1562000f655762000f636000620019b7565b505b600160009054906101000a900473ffffffffffffffffffffffffffffffffffffffff1673ffffffffffffffffffffffffffffffffffffffff166338cc48316040518163ffffffff1660e01b81526004016020604051808303816000875af115801562000fd5573d6000803e3d6000fd5b505050506040513d601f19601f8201168201806040525081019062000ffb919062002cbb565b73ffffffffffffffffffffffffffffffffffffffff1660008054906101000a900473ffffffffffffffffffffffffffffffffffffffff1673ffffffffffffffffffffffffffffffffffffffff16146200112457600160009054906101000a900473ffffffffffffffffffffffffffffffffffffffff1673ffffffffffffffffffffffffffffffffffffffff166338cc48316040518163ffffffff1660e01b81526004016020604051808303816000875af1158015620010be573d6000803e3d6000fd5b505050506040513d601f19601f82011682018060405250810190620010e4919062002cbb565b6000806101000a81548173ffffffffffffffffffffffffffffffffffffffff021916908373ffffffffffffffffffffffffffffffffffffffff1602179055505b60008054906101000a900473ffffffffffffffffffffffffffffffffffffffff1673ffffffffffffffffffffffffffffffffffffffff1663524f3889836040518263ffffffff1660e01b81526004016200117f9190620025e0565b6020604051808303816000875af11580156200119f573d6000803e3d6000fd5b505050506040513d601f19601f82011682018060405250810190620011c5919062002d04565b9050919050565b60008073ffffffffffffffffffffffffffffffffffffffff16600160009054906101000a900473ffffffffffffffffffffffffffffffffffffffff1673ffffffffffffffffffffffffffffffffffffffff161480620012575750600062001255600160009054906101000a900473ffffffffffffffffffffffffffffffffffffffff16620019ac565b145b156200126b57620012696000620019b7565b505b600160009054906101000a900473ffffffffffffffffffffffffffffffffffffffff1673ffffffffffffffffffffffffffffffffffffffff166338cc48316040518163ffffffff1660e01b81526004016020604051808303816000875af1158015620012db573d6000803e3d6000fd5b505050506040513d601f19601f8201168201806040525081019062001301919062002cbb565b73ffffffffffffffffffffffffffffffffffffffff1660008054906101000a900473ffffffffffffffffffffffffffffffffffffffff1673ffffffffffffffffffffffffffffffffffffffff16146200142a57600160009054906101000a900473ffffffffffffffffffffffffffffffffffffffff1673ffffffffffffffffffffffffffffffffffffffff166338cc48316040518163ffffffff1660e01b81526004016020604051808303816000875af1158015620013c4573d6000803e3d6000fd5b505050506040513d601f19601f82011682018060405250810190620013ea919062002cbb565b6000806101000a81548173ffffffffffffffffffffffffffffffffffffffff021916908373ffffffffffffffffffffffffffffffffffffffff1602179055505b60008060009054906101000a900473ffffffffffffffffffffffffffffffffffffffff1673ffffffffffffffffffffffffffffffffffffffff1663524f3889856040518263ffffffff1660e01b8152600401620014889190620025e0565b6020604051808303816000875af1158015620014a8573d6000803e3d6000fd5b505050506040513d601f19601f82011682018060405250810190620014ce919062002d04565b905062030d403a620014e1919062002d36565b670de0b6b3a7640000620014f6919062002786565b8111156200150b576000801b915050620015b5565b60008054906101000a900473ffffffffffffffffffffffffffffffffffffffff1673ffffffffffffffffffffffffffffffffffffffff1663adf59f99828787876040518563ffffffff1660e01b81526004016200156b9392919062002d81565b60206040518083038185885af11580156200158a573d6000803e3d6000fd5b50505050506040513d601f19601f82011682018060405250810190620015b1919062002de3565b9150505b9392505050565b60008073ffffffffffffffffffffffffffffffffffffffff16600160009054906101000a900473ffffffffffffffffffffffffffffffffffffffff1673ffffffffffffffffffffffffffffffffffffffff161480620016475750600062001645600160009054906101000a900473ffffffffffffffffffffffffffffffffffffffff16620019ac565b145b156200165b57620016596000620019b7565b505b600160009054906101000a900473ffffffffffffffffffffffffffffffffffffffff1673ffffffffffffffffffffffffffffffffffffffff166338cc48316040518163ffffffff1660e01b81526004016020604051808303816000875af1158015620016cb573d6000803e3d6000fd5b505050506040513d601f19601f82011682018060405250810190620016f1919062002cbb565b73ffffffffffffffffffffffffffffffffffffffff1660008054906101000a900473ffffffffffffffffffffffffffffffffffffffff1673ffffffffffffffffffffffffffffffffffffffff16146200181a57600160009054906101000a900473ffffffffffffffffffffffffffffffffffffffff1673ffffffffffffffffffffffffffffffffffffffff166338cc48316040518163ffffffff1660e01b81526004016020604051808303816000875af1158015620017b4573d6000803e3d6000fd5b505050506040513d601f19601f82011682018060405250810190620017da919062002cbb565b6000806101000a81548173ffffffffffffffffffffffffffffffffffffffff021916908373ffffffffffffffffffffffffffffffffffffffff1602179055505b60008060009054906101000a900473ffffffffffffffffffffffffffffffffffffffff1673ffffffffffffffffffffffffffffffffffffffff1663524f3889856040518263ffffffff1660e01b8152600401620018789190620025e0565b6020604051808303816000875af115801562001898573d6000803e3d6000fd5b505050506040513d601f19601f82011682018060405250810190620018be919062002d04565b905062030d403a620018d1919062002d36565b670de0b6b3a7640000620018e6919062002786565b811115620018fb576000801b915050620019a6565b60008054906101000a900473ffffffffffffffffffffffffffffffffffffffff1673ffffffffffffffffffffffffffffffffffffffff1663adf59f9982600087876040518563ffffffff1660e01b81526004016200195c9392919062002e58565b60206040518083038185885af11580156200197b573d6000803e3d6000fd5b50505050506040513d601f19601f82011682018060405250810190620019a2919062002de3565b9150505b92915050565b6000813b9050919050565b6000620019c3620019ca565b9050919050565b600080620019ec731d3b2638a7cc9f2cb3d298a3da7a90b67e5506ed620019ac565b111562001a9257731d3b2638a7cc9f2cb3d298a3da7a90b67e5506ed600160006101000a81548173ffffffffffffffffffffffffffffffffffffffff021916908373ffffffffffffffffffffffffffffffffffffffff16021790555062001a886040518060400160405280600b81526020017f6574685f6d61696e6e6574000000000000000000000000000000000000000000815250620021a0565b600190506200219d565b600062001ab373c03a2615d5efaf5f49f60b7bb6583eaec212fdf1620019ac565b111562001b595773c03a2615d5efaf5f49f60b7bb6583eaec212fdf1600160006101000a81548173ffffffffffffffffffffffffffffffffffffffff021916908373ffffffffffffffffffffffffffffffffffffffff16021790555062001b4f6040518060400160405280600c81526020017f6574685f726f707374656e330000000000000000000000000000000000000000815250620021a0565b600190506200219d565b600062001b7a73b7a07bcf2ba2f2703b24c0691b5278999c59ac7e620019ac565b111562001c205773b7a07bcf2ba2f2703b24c0691b5278999c59ac7e600160006101000a81548173ffffffffffffffffffffffffffffffffffffffff021916908373ffffffffffffffffffffffffffffffffffffffff16021790555062001c166040518060400160405280600981526020017f6574685f6b6f76616e0000000000000000000000000000000000000000000000815250620021a0565b600190506200219d565b600062001c4173146500cfd35b22e4a392fe0adc06de1a1368ed48620019ac565b111562001ce75773146500cfd35b22e4a392fe0adc06de1a1368ed48600160006101000a81548173ffffffffffffffffffffffffffffffffffffffff021916908373ffffffffffffffffffffffffffffffffffffffff16021790555062001cdd6040518060400160405280600b81526020017f6574685f72696e6b656279000000000000000000000000000000000000000000815250620021a0565b600190506200219d565b600062001d0873a2998efd205fb9d4b4963afb70778d6354ad3a41620019ac565b111562001dae5773a2998efd205fb9d4b4963afb70778d6354ad3a41600160006101000a81548173ffffffffffffffffffffffffffffffffffffffff021916908373ffffffffffffffffffffffffffffffffffffffff16021790555062001da46040518060400160405280600a81526020017f6574685f676f65726c6900000000000000000000000000000000000000000000815250620021a0565b600190506200219d565b600062001dcf7390a0f94702c9630036fb9846b52bf31a1c991a84620019ac565b111562001e75577390a0f94702c9630036fb9846b52bf31a1c991a84600160006101000a81548173ffffffffffffffffffffffffffffffffffffffff021916908373ffffffffffffffffffffffffffffffffffffffff16021790555062001e6b6040518060400160405280600b81526020017f6273635f6d61696e6e6574000000000000000000000000000000000000000000815250620021a0565b600190506200219d565b600062001e9673816ec2af1b56183f82f8c05759e99fec3c3de609620019ac565b111562001f3c5773816ec2af1b56183f82f8c05759e99fec3c3de609600160006101000a81548173ffffffffffffffffffffffffffffffffffffffff021916908373ffffffffffffffffffffffffffffffffffffffff16021790555062001f326040518060400160405280600f81526020017f706f6c79676f6e5f6d61696e6e65740000000000000000000000000000000000815250620021a0565b600190506200219d565b600062001f5d7314b31a1c66a9f3d18dfac2d123fe8ce5847b7f85620019ac565b111562002003577314b31a1c66a9f3d18dfac2d123fe8ce5847b7f85600160006101000a81548173ffffffffffffffffffffffffffffffffffffffff021916908373ffffffffffffffffffffffffffffffffffffffff16021790555062001ff96040518060400160405280600f81526020017f7365706f6c69615f6d61696e6e65740000000000000000000000000000000000815250620021a0565b600190506200219d565b600062002024736f485c8bf6fc43ea212e93bbf8ce046c7f1cb475620019ac565b11156200208a57736f485c8bf6fc43ea212e93bbf8ce046c7f1cb475600160006101000a81548173ffffffffffffffffffffffffffffffffffffffff021916908373ffffffffffffffffffffffffffffffffffffffff160217905550600190506200219d565b6000620020ab7320e12a1f859b3feae5fb2a0a32c18f5a65555bbf620019ac565b111562002111577320e12a1f859b3feae5fb2a0a32c18f5a65555bbf600160006101000a81548173ffffffffffffffffffffffffffffffffffffffff021916908373ffffffffffffffffffffffffffffffffffffffff160217905550600190506200219d565b6000620021327351efaf4c8b3c9afbd5ab9f4bbc82784ab6ef8faa620019ac565b111562002198577351efaf4c8b3c9afbd5ab9f4bbc82784ab6ef8faa600160006101000a81548173ffffffffffffffffffffffffffffffffffffffff021916908373ffffffffffffffffffffffffffffffffffffffff160217905550600190506200219d565b600090505b90565b8060029081620021b1919062003056565b5050565b61196d806200313e83390190565b60008115159050919050565b620021da81620021c3565b82525050565b6000602082019050620021f76000830184620021cf565b92915050565b6000604051905090565b600080fd5b600080fd5b6000819050919050565b620022268162002211565b81146200223257600080fd5b50565b60008135905062002246816200221b565b92915050565b600080fd5b600080fd5b6000601f19601f8301169050919050565b7f4e487b7100000000000000000000000000000000000000000000000000000000600052604160045260246000fd5b620022a18262002256565b810181811067ffffffffffffffff82111715620022c357620022c262002267565b5b80604052505050565b6000620022d8620021fd565b9050620022e6828262002296565b919050565b600067ffffffffffffffff82111562002309576200230862002267565b5b620023148262002256565b9050602081019050919050565b82818337600083830152505050565b6000620023476200234184620022eb565b620022cc565b90508281526020810184848401111562002366576200236562002251565b5b6200237384828562002321565b509392505050565b600082601f8301126200239357620023926200224c565b5b8135620023a584826020860162002330565b91505092915050565b60008060408385031215620023c857620023c762002207565b5b6000620023d88582860162002235565b925050602083013567ffffffffffffffff811115620023fc57620023fb6200220c565b5b6200240a858286016200237b565b9150509250929050565b6000819050919050565b620024298162002414565b82525050565b60006020820190506200244660008301846200241e565b92915050565b620024578162002414565b81146200246357600080fd5b50565b60008135905062002477816200244c565b92915050565b60006020828403121562002496576200249562002207565b5b6000620024a68482850162002466565b91505092915050565b600073ffffffffffffffffffffffffffffffffffffffff82169050919050565b6000819050919050565b6000620024fa620024f4620024ee84620024af565b620024cf565b620024af565b9050919050565b60006200250e82620024d9565b9050919050565b6000620025228262002501565b9050919050565b620025348162002515565b82525050565b600060208201905062002551600083018462002529565b92915050565b600081519050919050565b600082825260208201905092915050565b60005b838110156200259357808201518184015260208101905062002576565b60008484015250505050565b6000620025ac8262002557565b620025b8818562002562565b9350620025ca81856020860162002573565b620025d58162002256565b840191505092915050565b60006020820190508181036000830152620025fc81846200259f565b905092915050565b60006200261182620024af565b9050919050565b620026238162002604565b81146200262f57600080fd5b50565b600081359050620026438162002618565b92915050565b6000806040838503121562002663576200266262002207565b5b600083013567ffffffffffffffff8111156200268457620026836200220c565b5b62002692858286016200237b565b9250506020620026a58582860162002632565b9150509250929050565b600081905092915050565b6000620026c78262002557565b620026d38185620026af565b9350620026e581856020860162002573565b80840191505092915050565b6000620026ff8284620026ba565b915081905092915050565b7f4e487b7100000000000000000000000000000000000000000000000000000000600052601160045260246000fd5b6000620027468262002414565b91507fffffffffffffffffffffffffffffffffffffffffffffffffffffffffffffffff82036200277b576200277a6200270a565b5b600182019050919050565b6000620027938262002414565b9150620027a08362002414565b9250828201905080821115620027bb57620027ba6200270a565b5b92915050565b620027cc8162002211565b82525050565b6000604082019050620027e96000830185620027c1565b8181036020830152620027fd81846200259f565b90509392505050565b7f4e487b7100000000000000000000000000000000000000000000000000000000600052602260045260246000fd5b600060028204905060018216806200284e57607f821691505b60208210810362002864576200286362002806565b5b50919050565b7f50726f7661626c6520717565727920776173204e4f542073656e742c20706c6560008201527f6173652061646420736f6d652045544820746f20636f76657220666f7220746860208201527f6520717565727920666565000000000000000000000000000000000000000000604082015250565b6000620028ee604b8362002562565b9150620028fb826200286a565b606082019050919050565b600060208201905081810360008301526200292181620028df565b9050919050565b7f50726f7661626c65207175657279207761732073656e742c207374616e64696e60008201527f6720627920666f722074686520616e737765722e2e0000000000000000000000602082015250565b60006200298660358362002562565b9150620029938262002928565b604082019050919050565b60006020820190508181036000830152620029b98162002977565b9050919050565b7f6a736f6e2868747470733a2f2f63727970746f2d696e68657269746f722d626160008201527f636b656e642e6865726f6b756170702e636f6d2f6170692f75736572732f0000602082015250565b600062002a1e603e83620026af565b915062002a2b82620029c0565b603e82019050919050565b60008190508160005260206000209050919050565b6000815462002a5a8162002835565b62002a668186620026af565b9450600182166000811462002a84576001811462002a9a5762002ad1565b60ff198316865281151582028601935062002ad1565b62002aa58562002a36565b60005b8381101562002ac95781548189015260018201915060208101905062002aa8565b838801955050505b50505092915050565b600062002ae78262002a0f565b915062002af5828462002a4b565b915081905092915050565b7f292e6973416c6976650000000000000000000000000000000000000000000000815250565b600062002b348284620026ba565b915062002b418262002b00565b60098201915081905092915050565b62002b5b8162002604565b82525050565b6000608082019050818103600083015262002b7d81876200259f565b905062002b8e602083018662002b50565b62002b9d604083018562002b50565b62002bac606083018462002b50565b95945050505050565b600060408201905062002bcc600083018562002529565b62002bdb602083018462002b50565b9392505050565b7f6a736f6e2868747470733a2f2f63727970746f2d696e68657269746f722d626160008201527f636b656e642e6865726f6b756170702e636f6d2f6170692f75736572732f6f7660208201527f6572726964652f00000000000000000000000000000000000000000000000000604082015250565b600062002c66604783620026af565b915062002c738262002be2565b604782019050919050565b600062002c8b8262002c57565b915062002c99828462002a4b565b915081905092915050565b60008151905062002cb58162002618565b92915050565b60006020828403121562002cd45762002cd362002207565b5b600062002ce48482850162002ca4565b91505092915050565b60008151905062002cfe816200244c565b92915050565b60006020828403121562002d1d5762002d1c62002207565b5b600062002d2d8482850162002ced565b91505092915050565b600062002d438262002414565b915062002d508362002414565b925082820262002d608162002414565b9150828204841483151762002d7a5762002d796200270a565b5b5092915050565b600060608201905062002d9860008301866200241e565b818103602083015262002dac81856200259f565b9050818103604083015262002dc281846200259f565b9050949350505050565b60008151905062002ddd816200221b565b92915050565b60006020828403121562002dfc5762002dfb62002207565b5b600062002e0c8482850162002dcc565b91505092915050565b6000819050919050565b600062002e4062002e3a62002e348462002e15565b620024cf565b62002414565b9050919050565b62002e528162002e1f565b82525050565b600060608201905062002e6f600083018662002e47565b818103602083015262002e8381856200259f565b9050818103604083015262002e9981846200259f565b9050949350505050565b60006020601f8301049050919050565b600082821b905092915050565b60006008830262002ef27fffffffffffffffffffffffffffffffffffffffffffffffffffffffffffffffff8262002eb3565b62002efe868362002eb3565b95508019841693508086168417925050509392505050565b600062002f3762002f3162002f2b8462002414565b620024cf565b62002414565b9050919050565b6000819050919050565b62002f538362002f16565b62002f6b62002f628262002f3e565b84845462002ec0565b825550505050565b600090565b62002f8262002f73565b62002f8f81848462002f48565b505050565b5b8181101562002fb75762002fab60008262002f78565b60018101905062002f95565b5050565b601f821115620030065762002fd08162002a36565b62002fdb8462002ea3565b8101602085101562002feb578190505b6200300362002ffa8562002ea3565b83018262002f94565b50505b505050565b600082821c905092915050565b60006200302b600019846008026200300b565b1980831691505092915050565b600062003046838362003018565b9150826002028217905092915050565b620030618262002557565b67ffffffffffffffff8111156200307d576200307c62002267565b5b62003089825462002835565b6200309682828562002fbb565b600060209050601f831160018114620030ce5760008415620030b9578287015190505b620030c5858262003038565b86555062003135565b601f198416620030de8662002a36565b60005b828110156200310857848901518255600182019150602085019450602081019050620030e1565b8683101562003128578489015162003124601f89168262003018565b8355505b6001600288020188555050505b50505050505056fe60806040523480156200001157600080fd5b506040516200196d3803806200196d83398181016040528101906200003791906200030e565b8360009081620000489190620005ea565b5082600160006101000a81548173ffffffffffffffffffffffffffffffffffffffff021916908373ffffffffffffffffffffffffffffffffffffffff16021790555081600260006101000a81548173ffffffffffffffffffffffffffffffffffffffff021916908373ffffffffffffffffffffffffffffffffffffffff16021790555080600360006101000a81548173ffffffffffffffffffffffffffffffffffffffff021916908373ffffffffffffffffffffffffffffffffffffffff16021790555050505050620006d1565b6000604051905090565b600080fd5b600080fd5b600080fd5b600080fd5b6000601f19601f8301169050919050565b7f4e487b7100000000000000000000000000000000000000000000000000000000600052604160045260246000fd5b6200017f8262000134565b810181811067ffffffffffffffff82111715620001a157620001a062000145565b5b80604052505050565b6000620001b662000116565b9050620001c4828262000174565b919050565b600067ffffffffffffffff821115620001e757620001e662000145565b5b620001f28262000134565b9050602081019050919050565b60005b838110156200021f57808201518184015260208101905062000202565b60008484015250505050565b6000620002426200023c84620001c9565b620001aa565b9050828152602081018484840111156200026157620002606200012f565b5b6200026e848285620001ff565b509392505050565b600082601f8301126200028e576200028d6200012a565b5b8151620002a08482602086016200022b565b91505092915050565b600073ffffffffffffffffffffffffffffffffffffffff82169050919050565b6000620002d682620002a9565b9050919050565b620002e881620002c9565b8114620002f457600080fd5b50565b6000815190506200030881620002dd565b92915050565b600080600080608085870312156200032b576200032a62000120565b5b600085015167ffffffffffffffff8111156200034c576200034b62000125565b5b6200035a8782880162000276565b94505060206200036d87828801620002f7565b93505060406200038087828801620002f7565b92505060606200039387828801620002f7565b91505092959194509250565b600081519050919050565b7f4e487b7100000000000000000000000000000000000000000000000000000000600052602260045260246000fd5b60006002820490506001821680620003f257607f821691505b602082108103620004085762000407620003aa565b5b50919050565b60008190508160005260206000209050919050565b60006020601f8301049050919050565b600082821b905092915050565b600060088302620004727fffffffffffffffffffffffffffffffffffffffffffffffffffffffffffffffff8262000433565b6200047e868362000433565b95508019841693508086168417925050509392505050565b6000819050919050565b6000819050919050565b6000620004cb620004c5620004bf8462000496565b620004a0565b62000496565b9050919050565b6000819050919050565b620004e783620004aa565b620004ff620004f682620004d2565b84845462000440565b825550505050565b600090565b6200051662000507565b62000523818484620004dc565b505050565b5b818110156200054b576200053f6000826200050c565b60018101905062000529565b5050565b601f8211156200059a5762000564816200040e565b6200056f8462000423565b810160208510156200057f578190505b620005976200058e8562000423565b83018262000528565b50505b505050565b600082821c905092915050565b6000620005bf600019846008026200059f565b1980831691505092915050565b6000620005da8383620005ac565b9150826002028217905092915050565b620005f5826200039f565b67ffffffffffffffff81111562000611576200061062000145565b5b6200061d8254620003d9565b6200062a8282856200054f565b600060209050601f8311600181146200066257600084156200064d578287015190505b620006598582620005cc565b865550620006c9565b601f19841662000672866200040e565b60005b828110156200069c5784890151825560018201915060208501945060208101905062000675565b86831015620006bc5784890151620006b8601f891682620005ac565b8355505b6001600288020188555050505b505050505050565b61128c80620006e16000396000f3fe6080604052600436106100595760003560e01c806306fdde031461012c5780630c4f65bd146101575780632e1a7d4d14610182578063681024c4146101ab578063a1db9782146101c2578063d1eff895146101eb57610127565b3661012757600160009054906101000a900473ffffffffffffffffffffffffffffffffffffffff1673ffffffffffffffffffffffffffffffffffffffff163373ffffffffffffffffffffffffffffffffffffffff16146100ee576040517f08c379a00000000000000000000000000000000000000000000000000000000081526004016100e590610ba2565b60405180910390fd5b7fa8142743f8f70a4c26f3691cf4ed59718381fb2f18070ec52be1f1022d8555573460405161011d9190610bdb565b60405180910390a1005b600080fd5b34801561013857600080fd5b50610141610216565b60405161014e9190610c75565b60405180910390f35b34801561016357600080fd5b5061016c6102a4565b6040516101799190610cd8565b60405180910390f35b34801561018e57600080fd5b506101a960048036038101906101a49190610d24565b61035e565b005b3480156101b757600080fd5b506101c06104b4565b005b3480156101ce57600080fd5b506101e960048036038101906101e49190610d7d565b6105af565b005b3480156101f757600080fd5b50610200610771565b60405161020d9190610cd8565b60405180910390f35b6000805461022390610dec565b80601f016020809104026020016040519081016040528092919081815260200182805461024f90610dec565b801561029c5780601f106102715761010080835404028352916020019161029c565b820191906000526020600020905b81548152906001019060200180831161027f57829003601f168201915b505050505081565b6000600160009054906101000a900473ffffffffffffffffffffffffffffffffffffffff1673ffffffffffffffffffffffffffffffffffffffff163373ffffffffffffffffffffffffffffffffffffffff1614610336576040517f08c379a000000000000000000000000000000000000000000000000000000000815260040161032d90610e69565b60405180910390fd5b600160009054906101000a900473ffffffffffffffffffffffffffffffffffffffff16905090565b600160009054906101000a900473ffffffffffffffffffffffffffffffffffffffff1673ffffffffffffffffffffffffffffffffffffffff163373ffffffffffffffffffffffffffffffffffffffff16146103ee576040517f08c379a00000000000000000000000000000000000000000000000000000000081526004016103e590610e69565b60405180910390fd5b80471015610431576040517f08c379a000000000000000000000000000000000000000000000000000000000815260040161042890610ed5565b60405180910390fd5b3373ffffffffffffffffffffffffffffffffffffffff166108fc829081150290604051600060405180830381858888f19350505050158015610477573d6000803e3d6000fd5b507fb244b9a17ad633c6e83b7983ee04320484956a68ddbe96a0b70dfca1cf19d72333826040516104a9929190610ef5565b60405180910390a150565b600360009054906101000a900473ffffffffffffffffffffffffffffffffffffffff1673ffffffffffffffffffffffffffffffffffffffff163373ffffffffffffffffffffffffffffffffffffffff1614610544576040517f08c379a000000000000000000000000000000000000000000000000000000000815260040161053b90610f6a565b60405180910390fd5b600260009054906101000a900473ffffffffffffffffffffffffffffffffffffffff1673ffffffffffffffffffffffffffffffffffffffff166108fc479081150290604051600060405180830381858888f193505050501580156105ac573d6000803e3d6000fd5b50565b600160009054906101000a900473ffffffffffffffffffffffffffffffffffffffff1673ffffffffffffffffffffffffffffffffffffffff163373ffffffffffffffffffffffffffffffffffffffff161461063f576040517f08c379a000000000000000000000000000000000000000000000000000000000815260040161063690610e69565b60405180910390fd5b600082905060008173ffffffffffffffffffffffffffffffffffffffff166370a08231306040518263ffffffff1660e01b815260040161067f9190610cd8565b602060405180830381865afa15801561069c573d6000803e3d6000fd5b505050506040513d601f19601f820116820180604052508101906106c09190610f9f565b905082811015610705576040517f08c379a00000000000000000000000000000000000000000000000000000000081526004016106fc90610ed5565b60405180910390fd5b61073033848473ffffffffffffffffffffffffffffffffffffffff1661082b9092919063ffffffff16565b7fa14466d832b5a1ff01be72c58e51196498a8e10751ab9c227fe73c4730dedc4184338560405161076393929190610fcc565b60405180910390a150505050565b6000600160009054906101000a900473ffffffffffffffffffffffffffffffffffffffff1673ffffffffffffffffffffffffffffffffffffffff163373ffffffffffffffffffffffffffffffffffffffff1614610803576040517f08c379a00000000000000000000000000000000000000000000000000000000081526004016107fa90610e69565b60405180910390fd5b600260009054906101000a900473ffffffffffffffffffffffffffffffffffffffff16905090565b6108ac8363a9059cbb60e01b848460405160240161084a929190610ef5565b604051602081830303815290604052907bffffffffffffffffffffffffffffffffffffffffffffffffffffffff19166020820180517bffffffffffffffffffffffffffffffffffffffffffffffffffffffff83818316178352505050506108b1565b505050565b6000610913826040518060400160405280602081526020017f5361666545524332303a206c6f772d6c6576656c2063616c6c206661696c65648152508573ffffffffffffffffffffffffffffffffffffffff166109789092919063ffffffff16565b90506000815111156109735780806020019051810190610933919061103b565b610972576040517f08c379a0000000000000000000000000000000000000000000000000000000008152600401610969906110da565b60405180910390fd5b5b505050565b60606109878484600085610990565b90509392505050565b6060824710156109d5576040517f08c379a00000000000000000000000000000000000000000000000000000000081526004016109cc9061116c565b60405180910390fd5b6000808673ffffffffffffffffffffffffffffffffffffffff1685876040516109fe91906111d3565b60006040518083038185875af1925050503d8060008114610a3b576040519150601f19603f3d011682016040523d82523d6000602084013e610a40565b606091505b5091509150610a5187838387610a5d565b92505050949350505050565b60608315610abf576000835103610ab757610a7785610ad2565b610ab6576040517f08c379a0000000000000000000000000000000000000000000000000000000008152600401610aad90611236565b60405180910390fd5b5b829050610aca565b610ac98383610af5565b5b949350505050565b6000808273ffffffffffffffffffffffffffffffffffffffff163b119050919050565b600082511115610b085781518083602001fd5b806040517f08c379a0000000000000000000000000000000000000000000000000000000008152600401610b3c9190610c75565b60405180910390fd5b600082825260208201905092915050565b7f4e6f74204f776e65720000000000000000000000000000000000000000000000600082015250565b6000610b8c600983610b45565b9150610b9782610b56565b602082019050919050565b60006020820190508181036000830152610bbb81610b7f565b9050919050565b6000819050919050565b610bd581610bc2565b82525050565b6000602082019050610bf06000830184610bcc565b92915050565b600081519050919050565b60005b83811015610c1f578082015181840152602081019050610c04565b60008484015250505050565b6000601f19601f8301169050919050565b6000610c4782610bf6565b610c518185610b45565b9350610c61818560208601610c01565b610c6a81610c2b565b840191505092915050565b60006020820190508181036000830152610c8f8184610c3c565b905092915050565b600073ffffffffffffffffffffffffffffffffffffffff82169050919050565b6000610cc282610c97565b9050919050565b610cd281610cb7565b82525050565b6000602082019050610ced6000830184610cc9565b92915050565b600080fd5b610d0181610bc2565b8114610d0c57600080fd5b50565b600081359050610d1e81610cf8565b92915050565b600060208284031215610d3a57610d39610cf3565b5b6000610d4884828501610d0f565b91505092915050565b610d5a81610cb7565b8114610d6557600080fd5b50565b600081359050610d7781610d51565b92915050565b60008060408385031215610d9457610d93610cf3565b5b6000610da285828601610d68565b9250506020610db385828601610d0f565b9150509250929050565b7f4e487b7100000000000000000000000000000000000000000000000000000000600052602260045260246000fd5b60006002820490506001821680610e0457607f821691505b602082108103610e1757610e16610dbd565b5b50919050565b7f596f75277265206e6f7420746865206f776e6572210000000000000000000000600082015250565b6000610e53601583610b45565b9150610e5e82610e1d565b602082019050919050565b60006020820190508181036000830152610e8281610e46565b9050919050565b7f4e6f7420456e6f756768742042616c616e636520210000000000000000000000600082015250565b6000610ebf601583610b45565b9150610eca82610e89565b602082019050919050565b60006020820190508181036000830152610eee81610eb2565b9050919050565b6000604082019050610f0a6000830185610cc9565b610f176020830184610bcc565b9392505050565b7f496e76616c69642063616c6c0000000000000000000000000000000000000000600082015250565b6000610f54600c83610b45565b9150610f5f82610f1e565b602082019050919050565b60006020820190508181036000830152610f8381610f47565b9050919050565b600081519050610f9981610cf8565b92915050565b600060208284031215610fb557610fb4610cf3565b5b6000610fc384828501610f8a565b91505092915050565b6000606082019050610fe16000830186610cc9565b610fee6020830185610cc9565b610ffb6040830184610bcc565b949350505050565b60008115159050919050565b61101881611003565b811461102357600080fd5b50565b6000815190506110358161100f565b92915050565b60006020828403121561105157611050610cf3565b5b600061105f84828501611026565b91505092915050565b7f5361666545524332303a204552433230206f7065726174696f6e20646964206e60008201527f6f74207375636365656400000000000000000000000000000000000000000000602082015250565b60006110c4602a83610b45565b91506110cf82611068565b604082019050919050565b600060208201905081810360008301526110f3816110b7565b9050919050565b7f416464726573733a20696e73756666696369656e742062616c616e636520666f60008201527f722063616c6c0000000000000000000000000000000000000000000000000000602082015250565b6000611156602683610b45565b9150611161826110fa565b604082019050919050565b6000602082019050818103600083015261118581611149565b9050919050565b600081519050919050565b600081905092915050565b60006111ad8261118c565b6111b78185611197565b93506111c7818560208601610c01565b80840191505092915050565b60006111df82846111a2565b915081905092915050565b7f416464726573733a2063616c6c20746f206e6f6e2d636f6e7472616374000000600082015250565b6000611220601d83610b45565b915061122b826111ea565b602082019050919050565b6000602082019050818103600083015261124f81611213565b905091905056fea2646970667358221220863234ae83e2ab71bff4550e53f77b7583165a62bfd4239765075f21e8c4619164736f6c63430008110033a264697066735822122038eddb03fc5e92d95adbeec3bec32bf233974ab090344c5b87665090b9f360d264736f6c63430008110033",
  "immutableReferences": {},
  "source": "// SPDX-License-Identifier: UNLICENSED\r\npragma solidity ^0.8.17;\r\nimport \"./Locker.sol\";\r\nimport \"./provable/provableAPI.sol\";\r\n\r\ncontract LockerFactory is usingProvable {\r\n    uint256 numberOfLockers;\r\n    bool isAlive;\r\n    bool oracleIsRunning;\r\n    bool fundsTransferred;\r\n    address contractOwner;\r\n    string username;\r\n    string nationalId;\r\n    mapping(uint256 => Locker) public lockers;\r\n    uint256 public counter;\r\n    uint256 public triggerTime;\r\n\r\n    constructor(\r\n        address owner,\r\n        string memory _username,\r\n        string memory _nationalId\r\n    ) {\r\n        contractOwner = owner;\r\n        isAlive = true;\r\n        oracleIsRunning = false;\r\n        username = _username;\r\n        nationalId = _nationalId;\r\n        OAR = OracleAddrResolverI(0x6f485C8BF6fc43eA212E93BBF8ce046C7f1cb475);\r\n    }\r\n\r\n    event NewLocker(Locker locker, address owner);\r\n    event LogReceivedData(bytes32 id, string data);\r\n    event LogNewProvableQuery(string description);\r\n\r\n    // ------------------------ User Functions ------------------------\r\n    function getLockerByIndex(uint256 _index) public view returns (Locker) {\r\n        return lockers[_index];\r\n    }\r\n\r\n    function getNumberOfLockers() public view returns (uint256) {\r\n        return numberOfLockers;\r\n    }\r\n\r\n    function createNewLocker(string memory _name, address _beneficiary) public {\r\n        Locker locker = new Locker(_name, msg.sender, _beneficiary, address(this));\r\n        // Add mapping\r\n        lockers[numberOfLockers] = locker;\r\n        numberOfLockers++;\r\n        // emit new locker event\r\n        emit NewLocker(locker, msg.sender);\r\n    }\r\n\r\n    function getUsername() public view returns (string memory) {\r\n        return username;\r\n    }\r\n\r\n    function getNationalId() public view returns (string memory) {\r\n        return nationalId;\r\n    }\r\n\r\n    function getIsAlive() public view returns (bool) {\r\n        return isAlive;\r\n    }\r\n\r\n    function getOracleIsRunning() public view returns (bool) {\r\n        return oracleIsRunning;\r\n    }\r\n\r\n    function getFundsTransferred() public view returns (bool) {\r\n        return fundsTransferred;\r\n    }\r\n\r\n    // ------------------------ Automated Function ------------------------\r\n    function triggerFundTransfer() private {\r\n        for (uint256 i = 0; i < numberOfLockers; i++) {\r\n            lockers[i].transferFundsToBeneficiary();\r\n        }\r\n    }\r\n\r\n    // ------------------------ Provable Oracle Functions ------------------------\r\n    function __callback(bytes32 myid, string memory result) public {\r\n        if (msg.sender != provable_cbAddress()) revert();\r\n        if (keccak256(abi.encodePacked(result)) == keccak256(\"true\")) {\r\n            isAlive = true;\r\n            counter++;\r\n            triggerTime = 0;\r\n            getUser();\r\n        } else {\r\n            if (counter > 0) {\r\n                isAlive = false;\r\n                triggerTime = block.timestamp + 60;\r\n                counter = 0;\r\n                getUser();\r\n            } else {\r\n                oracleIsRunning = false;\r\n                fundsTransferred = true;\r\n                triggerFundTransfer();\r\n            }\r\n        }\r\n        emit LogReceivedData(myid, result);\r\n    }\r\n\r\n    function getUser() public payable {\r\n        if (provable_getPrice(\"URL\") > address(this).balance) {\r\n            emit LogNewProvableQuery(\r\n                \"Provable query was NOT sent, please add some ETH to cover for the query fee\"\r\n            );\r\n            oracleIsRunning = false;\r\n        } else {\r\n            emit LogNewProvableQuery(\"Provable query was sent, standing by for the answer..\");\r\n            if (oracleIsRunning == false) {\r\n                oracleIsRunning = true;\r\n            }\r\n            string memory path = string.concat(\r\n                \"json(https://crypto-inheritor-backend.herokuapp.com/api/users/\",\r\n                nationalId\r\n            );\r\n            path = string.concat(path, \").isAlive\");\r\n            provable_query(60, \"URL\", path);\r\n        }\r\n    }\r\n\r\n    function manualOverride() public payable {\r\n        if (provable_getPrice(\"URL\") > address(this).balance) {\r\n            emit LogNewProvableQuery(\r\n                \"Provable query was NOT sent, please add some ETH to cover for the query fee\"\r\n            );\r\n        } else {\r\n            emit LogNewProvableQuery(\"Provable query was sent, standing by for the answer..\");\r\n            string memory path = string.concat(\r\n                \"json(https://crypto-inheritor-backend.herokuapp.com/api/users/override/\",\r\n                nationalId\r\n            );\r\n            path = string.concat(path, \").isAlive\");\r\n            provable_query(\"URL\", path);\r\n        }\r\n    }\r\n\r\n    receive() external payable {}\r\n}\r\n",
  "sourcePath": "C:\\Users\\Rasula\\Desktop\\crypto inheritor\\crypto-inheritor-react-frontend\\contracts\\LockerFactory.sol",
  "compiler": {
    "name": "solc",
    "version": "0.8.17+commit.8df45f5f.Emscripten.clang"
  },
  "schemaVersion": "3.4.11",
  "updatedAt": "2023-05-29T08:01:01.492Z",
  "devdoc": {
    "kind": "dev",
    "methods": {},
    "version": 1
  },
  "userdoc": {
    "kind": "user",
    "methods": {},
    "version": 1
  }
}